{
  "_format": "hh-sol-artifact-1",
  "contractName": "StudentManagement",
  "sourceName": "contracts/StudentManagement.sol",
  "abi": [
    {
      "inputs": [],
      "stateMutability": "nonpayable",
      "type": "constructor"
    },
    {
      "inputs": [
        {
          "internalType": "uint8",
          "name": "_studentId",
          "type": "uint8"
        }
      ],
      "name": "getStudent",
      "outputs": [
        {
          "components": [
            {
              "internalType": "string",
              "name": "name",
              "type": "string"
            },
            {
              "internalType": "uint8",
              "name": "age",
              "type": "uint8"
            },
            {
              "internalType": "string",
              "name": "class",
              "type": "string"
            },
            {
              "internalType": "enum StudentManagement.Gender",
              "name": "gender",
              "type": "uint8"
            },
            {
              "internalType": "address",
              "name": "studentAddress",
              "type": "address"
            }
          ],
          "internalType": "struct StudentManagement.Student",
          "name": "student_",
          "type": "tuple"
        }
      ],
      "stateMutability": "view",
      "type": "function"
    },
    {
      "inputs": [
        {
          "internalType": "string",
          "name": "_name",
          "type": "string"
        }
      ],
      "name": "getStudentFromName",
      "outputs": [
        {
          "components": [
            {
              "internalType": "string",
              "name": "name",
              "type": "string"
            },
            {
              "internalType": "uint8",
              "name": "age",
              "type": "uint8"
            },
            {
              "internalType": "string",
              "name": "class",
              "type": "string"
            },
            {
              "internalType": "enum StudentManagement.Gender",
              "name": "gender",
              "type": "uint8"
            },
            {
              "internalType": "address",
              "name": "studentAddress",
              "type": "address"
            }
          ],
          "internalType": "struct StudentManagement.Student",
          "name": "",
          "type": "tuple"
        }
      ],
      "stateMutability": "view",
      "type": "function"
    },
    {
      "inputs": [],
      "name": "getStudents",
      "outputs": [
        {
          "components": [
            {
              "internalType": "string",
              "name": "name",
              "type": "string"
            },
            {
              "internalType": "uint8",
              "name": "age",
              "type": "uint8"
            },
            {
              "internalType": "string",
              "name": "class",
              "type": "string"
            },
            {
              "internalType": "enum StudentManagement.Gender",
              "name": "gender",
              "type": "uint8"
            },
            {
              "internalType": "address",
              "name": "studentAddress",
              "type": "address"
            }
          ],
          "internalType": "struct StudentManagement.Student[]",
          "name": "students_",
          "type": "tuple[]"
        }
      ],
      "stateMutability": "view",
      "type": "function"
    },
    {
      "inputs": [
        {
          "internalType": "address",
          "name": "",
          "type": "address"
        }
      ],
      "name": "payments",
      "outputs": [
        {
          "internalType": "uint256",
          "name": "",
          "type": "uint256"
        }
      ],
      "stateMutability": "view",
      "type": "function"
    },
    {
      "inputs": [
        {
          "internalType": "string",
          "name": "_name",
          "type": "string"
        },
        {
          "internalType": "uint8",
          "name": "_age",
          "type": "uint8"
        },
        {
          "internalType": "string",
          "name": "_class",
          "type": "string"
        },
        {
          "internalType": "enum StudentManagement.Gender",
          "name": "_gender",
          "type": "uint8"
        }
      ],
      "name": "registerStudent",
      "outputs": [],
      "stateMutability": "payable",
      "type": "function"
    },
    {
      "inputs": [],
      "name": "registrationFee",
      "outputs": [
        {
          "internalType": "uint256",
          "name": "",
          "type": "uint256"
        }
      ],
      "stateMutability": "view",
      "type": "function"
    },
    {
      "inputs": [
        {
          "internalType": "uint256",
          "name": "_newFee",
          "type": "uint256"
        }
      ],
      "name": "updateRegistrationFee",
      "outputs": [],
      "stateMutability": "nonpayable",
      "type": "function"
    },
    {
      "inputs": [],
      "name": "withdrawFees",
      "outputs": [],
      "stateMutability": "nonpayable",
      "type": "function"
    },
    {
      "stateMutability": "payable",
      "type": "receive"
    }
  ],
  "bytecode": "0x6080604052662386f26fc100006001556000600560006101000a81548160ff021916908360ff160217905550348015603657600080fd5b50336000806101000a81548173ffffffffffffffffffffffffffffffffffffffff021916908373ffffffffffffffffffffffffffffffffffffffff160217905550611c97806100866000396000f3fe60806040526004361061007f5760003560e01c8063ac7245b51161004e578063ac7245b514610126578063af582c6b14610163578063e2982c211461018c578063f1d064b3146101c957610086565b806314c44e091461008b5780631fd30892146100b6578063476343ee146100f35780637fe8c9091461010a57610086565b3661008657005b600080fd5b34801561009757600080fd5b506100a06101f4565b6040516100ad9190610e6b565b60405180910390f35b3480156100c257600080fd5b506100dd60048036038101906100d89190610ed3565b6101fa565b6040516100ea91906110d4565b60405180910390f35b3480156100ff57600080fd5b506101086103ff565b005b610124600480360381019061011f9190611250565b6105a6565b005b34801561013257600080fd5b5061014d600480360381019061014891906112ef565b6107c6565b60405161015a91906110d4565b60405180910390f35b34801561016f57600080fd5b5061018a60048036038101906101859190611364565b610a81565b005b34801561019857600080fd5b506101b360048036038101906101ae91906113bd565b610b19565b6040516101c09190610e6b565b60405180910390f35b3480156101d557600080fd5b506101de610b31565b6040516101eb9190611529565b60405180910390f35b60015481565b610202610df8565b600360008360ff1660ff1681526020019081526020016000206040518060a00160405290816000820180546102369061157a565b80601f01602080910402602001604051908101604052809291908181526020018280546102629061157a565b80156102af5780601f10610284576101008083540402835291602001916102af565b820191906000526020600020905b81548152906001019060200180831161029257829003601f168201915b505050505081526020016001820160009054906101000a900460ff1660ff1660ff1681526020016002820180546102e59061157a565b80601f01602080910402602001604051908101604052809291908181526020018280546103119061157a565b801561035e5780601f106103335761010080835404028352916020019161035e565b820191906000526020600020905b81548152906001019060200180831161034157829003601f168201915b505050505081526020016003820160009054906101000a900460ff16600181111561038c5761038b610f9f565b5b600181111561039e5761039d610f9f565b5b81526020016003820160019054906101000a900473ffffffffffffffffffffffffffffffffffffffff1673ffffffffffffffffffffffffffffffffffffffff1673ffffffffffffffffffffffffffffffffffffffff16815250509050919050565b60008054906101000a900473ffffffffffffffffffffffffffffffffffffffff1673ffffffffffffffffffffffffffffffffffffffff163373ffffffffffffffffffffffffffffffffffffffff161461048d576040517f08c379a000000000000000000000000000000000000000000000000000000000815260040161048490611608565b60405180910390fd5b6000479050600081116104d5576040517f08c379a00000000000000000000000000000000000000000000000000000000081526004016104cc90611674565b60405180910390fd5b60008060009054906101000a900473ffffffffffffffffffffffffffffffffffffffff1673ffffffffffffffffffffffffffffffffffffffff168260405161051c906116c5565b60006040518083038185875af1925050503d8060008114610559576040519150601f19603f3d011682016040523d82523d6000602084013e61055e565b606091505b50509050806105a2576040517f08c379a00000000000000000000000000000000000000000000000000000000081526004016105999061174c565b60405180910390fd5b5050565b6001543410156105eb576040517f08c379a00000000000000000000000000000000000000000000000000000000081526004016105e2906117b8565b60405180910390fd5b60006040518060a001604052808681526020018560ff1681526020018481526020018360018111156106205761061f610f9f565b5b81526020013373ffffffffffffffffffffffffffffffffffffffff1681525090506005600081819054906101000a900460ff168092919061066090611807565b91906101000a81548160ff021916908360ff160217905550508060036000600560009054906101000a900460ff1660ff1660ff16815260200190815260200160002060008201518160000190816106b791906119dc565b5060208201518160010160006101000a81548160ff021916908360ff16021790555060408201518160020190816106ee91906119dc565b5060608201518160030160006101000a81548160ff0219169083600181111561071a57610719610f9f565b5b021790555060808201518160030160016101000a81548173ffffffffffffffffffffffffffffffffffffffff021916908373ffffffffffffffffffffffffffffffffffffffff16021790555090505034600460003373ffffffffffffffffffffffffffffffffffffffff1673ffffffffffffffffffffffffffffffffffffffff16815260200190815260200160002060008282546107b89190611aae565b925050819055505050505050565b6107ce610df8565b6000600190505b600560009054906101000a900460ff1660ff168160ff1611610a40578280519060200120600360008360ff1660ff1681526020019081526020016000206000016040516108229190611b7a565b604051809103902003610a2d57600360008260ff1660ff1681526020019081526020016000206040518060a00160405290816000820180546108639061157a565b80601f016020809104026020016040519081016040528092919081815260200182805461088f9061157a565b80156108dc5780601f106108b1576101008083540402835291602001916108dc565b820191906000526020600020905b8154815290600101906020018083116108bf57829003601f168201915b505050505081526020016001820160009054906101000a900460ff1660ff1660ff1681526020016002820180546109129061157a565b80601f016020809104026020016040519081016040528092919081815260200182805461093e9061157a565b801561098b5780601f106109605761010080835404028352916020019161098b565b820191906000526020600020905b81548152906001019060200180831161096e57829003601f168201915b505050505081526020016003820160009054906101000a900460ff1660018111156109b9576109b8610f9f565b5b60018111156109cb576109ca610f9f565b5b81526020016003820160019054906101000a900473ffffffffffffffffffffffffffffffffffffffff1673ffffffffffffffffffffffffffffffffffffffff1673ffffffffffffffffffffffffffffffffffffffff1681525050915050610a7c565b8080610a3890611807565b9150506107d5565b506040517f08c379a0000000000000000000000000000000000000000000000000000000008152600401610a7390611bdd565b60405180910390fd5b919050565b60008054906101000a900473ffffffffffffffffffffffffffffffffffffffff1673ffffffffffffffffffffffffffffffffffffffff163373ffffffffffffffffffffffffffffffffffffffff1614610b0f576040517f08c379a0000000000000000000000000000000000000000000000000000000008152600401610b0690611608565b60405180910390fd5b8060018190555050565b60046020528060005260406000206000915090505481565b6060600560009054906101000a900460ff1660ff1667ffffffffffffffff811115610b5f57610b5e611100565b5b604051908082528060200260200182016040528015610b9857816020015b610b85610df8565b815260200190600190039081610b7d5790505b5090506000600190505b600560009054906101000a900460ff1660ff168160ff1611610df457600360008260ff1660ff1681526020019081526020016000206040518060a0016040529081600082018054610bf29061157a565b80601f0160208091040260200160405190810160405280929190818152602001828054610c1e9061157a565b8015610c6b5780601f10610c4057610100808354040283529160200191610c6b565b820191906000526020600020905b815481529060010190602001808311610c4e57829003601f168201915b505050505081526020016001820160009054906101000a900460ff1660ff1660ff168152602001600282018054610ca19061157a565b80601f0160208091040260200160405190810160405280929190818152602001828054610ccd9061157a565b8015610d1a5780601f10610cef57610100808354040283529160200191610d1a565b820191906000526020600020905b815481529060010190602001808311610cfd57829003601f168201915b505050505081526020016003820160009054906101000a900460ff166001811115610d4857610d47610f9f565b5b6001811115610d5a57610d59610f9f565b5b81526020016003820160019054906101000a900473ffffffffffffffffffffffffffffffffffffffff1673ffffffffffffffffffffffffffffffffffffffff1673ffffffffffffffffffffffffffffffffffffffff168152505082600183610dc29190611bfd565b60ff1681518110610dd657610dd5611c32565b5b60200260200101819052508080610dec90611807565b915050610ba2565b5090565b6040518060a0016040528060608152602001600060ff1681526020016060815260200160006001811115610e2f57610e2e610f9f565b5b8152602001600073ffffffffffffffffffffffffffffffffffffffff1681525090565b6000819050919050565b610e6581610e52565b82525050565b6000602082019050610e806000830184610e5c565b92915050565b6000604051905090565b600080fd5b600080fd5b600060ff82169050919050565b610eb081610e9a565b8114610ebb57600080fd5b50565b600081359050610ecd81610ea7565b92915050565b600060208284031215610ee957610ee8610e90565b5b6000610ef784828501610ebe565b91505092915050565b600081519050919050565b600082825260208201905092915050565b60005b83811015610f3a578082015181840152602081019050610f1f565b60008484015250505050565b6000601f19601f8301169050919050565b6000610f6282610f00565b610f6c8185610f0b565b9350610f7c818560208601610f1c565b610f8581610f46565b840191505092915050565b610f9981610e9a565b82525050565b7f4e487b7100000000000000000000000000000000000000000000000000000000600052602160045260246000fd5b60028110610fdf57610fde610f9f565b5b50565b6000819050610ff082610fce565b919050565b600061100082610fe2565b9050919050565b61101081610ff5565b82525050565b600073ffffffffffffffffffffffffffffffffffffffff82169050919050565b600061104182611016565b9050919050565b61105181611036565b82525050565b600060a08301600083015184820360008601526110748282610f57565b91505060208301516110896020860182610f90565b50604083015184820360408601526110a18282610f57565b91505060608301516110b66060860182611007565b5060808301516110c96080860182611048565b508091505092915050565b600060208201905081810360008301526110ee8184611057565b905092915050565b600080fd5b600080fd5b7f4e487b7100000000000000000000000000000000000000000000000000000000600052604160045260246000fd5b61113882610f46565b810181811067ffffffffffffffff8211171561115757611156611100565b5b80604052505050565b600061116a610e86565b9050611176828261112f565b919050565b600067ffffffffffffffff82111561119657611195611100565b5b61119f82610f46565b9050602081019050919050565b82818337600083830152505050565b60006111ce6111c98461117b565b611160565b9050828152602081018484840111156111ea576111e96110fb565b5b6111f58482856111ac565b509392505050565b600082601f830112611212576112116110f6565b5b81356112228482602086016111bb565b91505092915050565b6002811061123857600080fd5b50565b60008135905061124a8161122b565b92915050565b6000806000806080858703121561126a57611269610e90565b5b600085013567ffffffffffffffff81111561128857611287610e95565b5b611294878288016111fd565b94505060206112a587828801610ebe565b935050604085013567ffffffffffffffff8111156112c6576112c5610e95565b5b6112d2878288016111fd565b92505060606112e38782880161123b565b91505092959194509250565b60006020828403121561130557611304610e90565b5b600082013567ffffffffffffffff81111561132357611322610e95565b5b61132f848285016111fd565b91505092915050565b61134181610e52565b811461134c57600080fd5b50565b60008135905061135e81611338565b92915050565b60006020828403121561137a57611379610e90565b5b60006113888482850161134f565b91505092915050565b61139a81611036565b81146113a557600080fd5b50565b6000813590506113b781611391565b92915050565b6000602082840312156113d3576113d2610e90565b5b60006113e1848285016113a8565b91505092915050565b600081519050919050565b600082825260208201905092915050565b6000819050602082019050919050565b600060a08301600083015184820360008601526114338282610f57565b91505060208301516114486020860182610f90565b50604083015184820360408601526114608282610f57565b91505060608301516114756060860182611007565b5060808301516114886080860182611048565b508091505092915050565b600061149f8383611416565b905092915050565b6000602082019050919050565b60006114bf826113ea565b6114c981856113f5565b9350836020820285016114db85611406565b8060005b8581101561151757848403895281516114f88582611493565b9450611503836114a7565b925060208a019950506001810190506114df565b50829750879550505050505092915050565b6000602082019050818103600083015261154381846114b4565b905092915050565b7f4e487b7100000000000000000000000000000000000000000000000000000000600052602260045260246000fd5b6000600282049050600182168061159257607f821691505b6020821081036115a5576115a461154b565b5b50919050565b600082825260208201905092915050565b7f596f7520617265206e6f74207468652061646d696e0000000000000000000000600082015250565b60006115f26015836115ab565b91506115fd826115bc565b602082019050919050565b60006020820190508181036000830152611621816115e5565b9050919050565b7f4e6f206665657320746f20776974686472617700000000000000000000000000600082015250565b600061165e6013836115ab565b915061166982611628565b602082019050919050565b6000602082019050818103600083015261168d81611651565b9050919050565b600081905092915050565b50565b60006116af600083611694565b91506116ba8261169f565b600082019050919050565b60006116d0826116a2565b9150819050919050565b7f746865207363686f6f6c2062616c616e63652063616e6e6f742062652077697460008201527f68647261776e20636f73206974206661696c6564000000000000000000000000602082015250565b60006117366034836115ab565b9150611741826116da565b604082019050919050565b6000602082019050818103600083015261176581611729565b9050919050565b7f496e73756666696369656e7420726567697374726174696f6e20666565000000600082015250565b60006117a2601d836115ab565b91506117ad8261176c565b602082019050919050565b600060208201905081810360008301526117d181611795565b9050919050565b7f4e487b7100000000000000000000000000000000000000000000000000000000600052601160045260246000fd5b600061181282610e9a565b915060ff8203611825576118246117d8565b5b600182019050919050565b60008190508160005260206000209050919050565b60006020601f8301049050919050565b600082821b905092915050565b6000600883026118927fffffffffffffffffffffffffffffffffffffffffffffffffffffffffffffffff82611855565b61189c8683611855565b95508019841693508086168417925050509392505050565b6000819050919050565b60006118d96118d46118cf84610e52565b6118b4565b610e52565b9050919050565b6000819050919050565b6118f3836118be565b6119076118ff826118e0565b848454611862565b825550505050565b600090565b61191c61190f565b6119278184846118ea565b505050565b5b8181101561194b57611940600082611914565b60018101905061192d565b5050565b601f8211156119905761196181611830565b61196a84611845565b81016020851015611979578190505b61198d61198585611845565b83018261192c565b50505b505050565b600082821c905092915050565b60006119b360001984600802611995565b1980831691505092915050565b60006119cc83836119a2565b9150826002028217905092915050565b6119e582610f00565b67ffffffffffffffff8111156119fe576119fd611100565b5b611a08825461157a565b611a1382828561194f565b600060209050601f831160018114611a465760008415611a34578287015190505b611a3e85826119c0565b865550611aa6565b601f198416611a5486611830565b60005b82811015611a7c57848901518255600182019150602085019450602081019050611a57565b86831015611a995784890151611a95601f8916826119a2565b8355505b6001600288020188555050505b505050505050565b6000611ab982610e52565b9150611ac483610e52565b9250828201905080821115611adc57611adb6117d8565b5b92915050565b60008190508160005260206000209050919050565b60008154611b048161157a565b611b0e8186611694565b94506001821660008114611b295760018114611b3e57611b71565b60ff1983168652811515820286019350611b71565b611b4785611ae2565b60005b83811015611b6957815481890152600182019150602081019050611b4a565b838801955050505b50505092915050565b6000611b868284611af7565b915081905092915050565b7f53747564656e74206e6f7420666f756e64000000000000000000000000000000600082015250565b6000611bc76011836115ab565b9150611bd282611b91565b602082019050919050565b60006020820190508181036000830152611bf681611bba565b9050919050565b6000611c0882610e9a565b9150611c1383610e9a565b9250828203905060ff811115611c2c57611c2b6117d8565b5b92915050565b7f4e487b7100000000000000000000000000000000000000000000000000000000600052603260045260246000fdfea2646970667358221220c2ecd5d6aace3593c1bdfc3a17f304753574d6fea001bd646439b411d9f611b764736f6c634300081c0033",
  "linkReferences": {},
  "deployedLinkReferences": {}
}