{
  "contracts/StudentManagement.sol": {
    "StudentManagement": {
      "abi": [
        {
          "inputs": [],
          "stateMutability": "nonpayable",
          "type": "constructor"
        },
        {
          "inputs": [
            {
              "internalType": "uint8",
              "name": "_studentId",
              "type": "uint8"
            }
          ],
          "name": "getStudent",
          "outputs": [
            {
              "components": [
                {
                  "internalType": "string",
                  "name": "name",
                  "type": "string"
                },
                {
                  "internalType": "uint8",
                  "name": "age",
                  "type": "uint8"
                },
                {
                  "internalType": "string",
                  "name": "class",
                  "type": "string"
                },
                {
                  "internalType": "enum StudentManagement.Gender",
                  "name": "gender",
                  "type": "uint8"
                },
                {
                  "internalType": "address",
                  "name": "studentAddress",
                  "type": "address"
                }
              ],
              "internalType": "struct StudentManagement.Student",
              "name": "student_",
              "type": "tuple"
            }
          ],
          "stateMutability": "view",
          "type": "function"
        },
        {
          "inputs": [
            {
              "internalType": "string",
              "name": "_name",
              "type": "string"
            }
          ],
          "name": "getStudentFromName",
          "outputs": [
            {
              "components": [
                {
                  "internalType": "string",
                  "name": "name",
                  "type": "string"
                },
                {
                  "internalType": "uint8",
                  "name": "age",
                  "type": "uint8"
                },
                {
                  "internalType": "string",
                  "name": "class",
                  "type": "string"
                },
                {
                  "internalType": "enum StudentManagement.Gender",
                  "name": "gender",
                  "type": "uint8"
                },
                {
                  "internalType": "address",
                  "name": "studentAddress",
                  "type": "address"
                }
              ],
              "internalType": "struct StudentManagement.Student",
              "name": "",
              "type": "tuple"
            }
          ],
          "stateMutability": "view",
          "type": "function"
        },
        {
          "inputs": [],
          "name": "getStudents",
          "outputs": [
            {
              "components": [
                {
                  "internalType": "string",
                  "name": "name",
                  "type": "string"
                },
                {
                  "internalType": "uint8",
                  "name": "age",
                  "type": "uint8"
                },
                {
                  "internalType": "string",
                  "name": "class",
                  "type": "string"
                },
                {
                  "internalType": "enum StudentManagement.Gender",
                  "name": "gender",
                  "type": "uint8"
                },
                {
                  "internalType": "address",
                  "name": "studentAddress",
                  "type": "address"
                }
              ],
              "internalType": "struct StudentManagement.Student[]",
              "name": "students_",
              "type": "tuple[]"
            }
          ],
          "stateMutability": "view",
          "type": "function"
        },
        {
          "inputs": [
            {
              "internalType": "address",
              "name": "",
              "type": "address"
            }
          ],
          "name": "payments",
          "outputs": [
            {
              "internalType": "uint256",
              "name": "",
              "type": "uint256"
            }
          ],
          "stateMutability": "view",
          "type": "function"
        },
        {
          "inputs": [
            {
              "internalType": "string",
              "name": "_name",
              "type": "string"
            },
            {
              "internalType": "uint8",
              "name": "_age",
              "type": "uint8"
            },
            {
              "internalType": "string",
              "name": "_class",
              "type": "string"
            },
            {
              "internalType": "enum StudentManagement.Gender",
              "name": "_gender",
              "type": "uint8"
            }
          ],
          "name": "registerStudent",
          "outputs": [],
          "stateMutability": "payable",
          "type": "function"
        },
        {
          "inputs": [],
          "name": "registrationFee",
          "outputs": [
            {
              "internalType": "uint256",
              "name": "",
              "type": "uint256"
            }
          ],
          "stateMutability": "view",
          "type": "function"
        },
        {
          "inputs": [
            {
              "internalType": "uint256",
              "name": "_newFee",
              "type": "uint256"
            }
          ],
          "name": "updateRegistrationFee",
          "outputs": [],
          "stateMutability": "nonpayable",
          "type": "function"
        },
        {
          "inputs": [],
          "name": "withdrawFees",
          "outputs": [],
          "stateMutability": "nonpayable",
          "type": "function"
        },
        {
          "stateMutability": "payable",
          "type": "receive"
        }
      ],
      "evm": {
        "bytecode": {
          "linkReferences": {},
          "object": "6080604052662386f26fc100006001556000600560006101000a81548160ff021916908360ff160217905550348015603657600080fd5b50336000806101000a81548173ffffffffffffffffffffffffffffffffffffffff021916908373ffffffffffffffffffffffffffffffffffffffff160217905550611d25806100866000396000f3fe60806040526004361061007f5760003560e01c8063ac7245b51161004e578063ac7245b514610126578063af582c6b14610163578063e2982c211461018c578063f1d064b3146101c957610086565b806314c44e091461008b5780631fd30892146100b6578063476343ee146100f35780637fe8c9091461010a57610086565b3661008657005b600080fd5b34801561009757600080fd5b506100a06101f4565b6040516100ad9190610ef9565b60405180910390f35b3480156100c257600080fd5b506100dd60048036038101906100d89190610f61565b6101fa565b6040516100ea9190611162565b60405180910390f35b3480156100ff57600080fd5b506101086103ff565b005b610124600480360381019061011f91906112de565b6105a6565b005b34801561013257600080fd5b5061014d6004803603810190610148919061137d565b610854565b60405161015a9190611162565b60405180910390f35b34801561016f57600080fd5b5061018a600480360381019061018591906113f2565b610b0f565b005b34801561019857600080fd5b506101b360048036038101906101ae919061144b565b610ba7565b6040516101c09190610ef9565b60405180910390f35b3480156101d557600080fd5b506101de610bbf565b6040516101eb91906115b7565b60405180910390f35b60015481565b610202610e86565b600360008360ff1660ff1681526020019081526020016000206040518060a001604052908160008201805461023690611608565b80601f016020809104026020016040519081016040528092919081815260200182805461026290611608565b80156102af5780601f10610284576101008083540402835291602001916102af565b820191906000526020600020905b81548152906001019060200180831161029257829003601f168201915b505050505081526020016001820160009054906101000a900460ff1660ff1660ff1681526020016002820180546102e590611608565b80601f016020809104026020016040519081016040528092919081815260200182805461031190611608565b801561035e5780601f106103335761010080835404028352916020019161035e565b820191906000526020600020905b81548152906001019060200180831161034157829003601f168201915b505050505081526020016003820160009054906101000a900460ff16600181111561038c5761038b61102d565b5b600181111561039e5761039d61102d565b5b81526020016003820160019054906101000a900473ffffffffffffffffffffffffffffffffffffffff1673ffffffffffffffffffffffffffffffffffffffff1673ffffffffffffffffffffffffffffffffffffffff16815250509050919050565b60008054906101000a900473ffffffffffffffffffffffffffffffffffffffff1673ffffffffffffffffffffffffffffffffffffffff163373ffffffffffffffffffffffffffffffffffffffff161461048d576040517f08c379a000000000000000000000000000000000000000000000000000000000815260040161048490611696565b60405180910390fd5b6000479050600081116104d5576040517f08c379a00000000000000000000000000000000000000000000000000000000081526004016104cc90611702565b60405180910390fd5b60008060009054906101000a900473ffffffffffffffffffffffffffffffffffffffff1673ffffffffffffffffffffffffffffffffffffffff168260405161051c90611753565b60006040518083038185875af1925050503d8060008114610559576040519150601f19603f3d011682016040523d82523d6000602084013e61055e565b606091505b50509050806105a2576040517f08c379a0000000000000000000000000000000000000000000000000000000008152600401610599906117da565b60405180910390fd5b5050565b60008054906101000a900473ffffffffffffffffffffffffffffffffffffffff1673ffffffffffffffffffffffffffffffffffffffff163373ffffffffffffffffffffffffffffffffffffffff1614610634576040517f08c379a000000000000000000000000000000000000000000000000000000000815260040161062b90611696565b60405180910390fd5b600154341015610679576040517f08c379a000000000000000000000000000000000000000000000000000000000815260040161067090611846565b60405180910390fd5b60006040518060a001604052808681526020018560ff1681526020018481526020018360018111156106ae576106ad61102d565b5b81526020013373ffffffffffffffffffffffffffffffffffffffff1681525090506005600081819054906101000a900460ff16809291906106ee90611895565b91906101000a81548160ff021916908360ff160217905550508060036000600560009054906101000a900460ff1660ff1660ff16815260200190815260200160002060008201518160000190816107459190611a6a565b5060208201518160010160006101000a81548160ff021916908360ff160217905550604082015181600201908161077c9190611a6a565b5060608201518160030160006101000a81548160ff021916908360018111156107a8576107a761102d565b5b021790555060808201518160030160016101000a81548173ffffffffffffffffffffffffffffffffffffffff021916908373ffffffffffffffffffffffffffffffffffffffff16021790555090505034600460003373ffffffffffffffffffffffffffffffffffffffff1673ffffffffffffffffffffffffffffffffffffffff16815260200190815260200160002060008282546108469190611b3c565b925050819055505050505050565b61085c610e86565b6000600190505b600560009054906101000a900460ff1660ff168160ff1611610ace578280519060200120600360008360ff1660ff1681526020019081526020016000206000016040516108b09190611c08565b604051809103902003610abb57600360008260ff1660ff1681526020019081526020016000206040518060a00160405290816000820180546108f190611608565b80601f016020809104026020016040519081016040528092919081815260200182805461091d90611608565b801561096a5780601f1061093f5761010080835404028352916020019161096a565b820191906000526020600020905b81548152906001019060200180831161094d57829003601f168201915b505050505081526020016001820160009054906101000a900460ff1660ff1660ff1681526020016002820180546109a090611608565b80601f01602080910402602001604051908101604052809291908181526020018280546109cc90611608565b8015610a195780601f106109ee57610100808354040283529160200191610a19565b820191906000526020600020905b8154815290600101906020018083116109fc57829003601f168201915b505050505081526020016003820160009054906101000a900460ff166001811115610a4757610a4661102d565b5b6001811115610a5957610a5861102d565b5b81526020016003820160019054906101000a900473ffffffffffffffffffffffffffffffffffffffff1673ffffffffffffffffffffffffffffffffffffffff1673ffffffffffffffffffffffffffffffffffffffff1681525050915050610b0a565b8080610ac690611895565b915050610863565b506040517f08c379a0000000000000000000000000000000000000000000000000000000008152600401610b0190611c6b565b60405180910390fd5b919050565b60008054906101000a900473ffffffffffffffffffffffffffffffffffffffff1673ffffffffffffffffffffffffffffffffffffffff163373ffffffffffffffffffffffffffffffffffffffff1614610b9d576040517f08c379a0000000000000000000000000000000000000000000000000000000008152600401610b9490611696565b60405180910390fd5b8060018190555050565b60046020528060005260406000206000915090505481565b6060600560009054906101000a900460ff1660ff1667ffffffffffffffff811115610bed57610bec61118e565b5b604051908082528060200260200182016040528015610c2657816020015b610c13610e86565b815260200190600190039081610c0b5790505b5090506000600190505b600560009054906101000a900460ff1660ff168160ff1611610e8257600360008260ff1660ff1681526020019081526020016000206040518060a0016040529081600082018054610c8090611608565b80601f0160208091040260200160405190810160405280929190818152602001828054610cac90611608565b8015610cf95780601f10610cce57610100808354040283529160200191610cf9565b820191906000526020600020905b815481529060010190602001808311610cdc57829003601f168201915b505050505081526020016001820160009054906101000a900460ff1660ff1660ff168152602001600282018054610d2f90611608565b80601f0160208091040260200160405190810160405280929190818152602001828054610d5b90611608565b8015610da85780601f10610d7d57610100808354040283529160200191610da8565b820191906000526020600020905b815481529060010190602001808311610d8b57829003601f168201915b505050505081526020016003820160009054906101000a900460ff166001811115610dd657610dd561102d565b5b6001811115610de857610de761102d565b5b81526020016003820160019054906101000a900473ffffffffffffffffffffffffffffffffffffffff1673ffffffffffffffffffffffffffffffffffffffff1673ffffffffffffffffffffffffffffffffffffffff168152505082600183610e509190611c8b565b60ff1681518110610e6457610e63611cc0565b5b60200260200101819052508080610e7a90611895565b915050610c30565b5090565b6040518060a0016040528060608152602001600060ff1681526020016060815260200160006001811115610ebd57610ebc61102d565b5b8152602001600073ffffffffffffffffffffffffffffffffffffffff1681525090565b6000819050919050565b610ef381610ee0565b82525050565b6000602082019050610f0e6000830184610eea565b92915050565b6000604051905090565b600080fd5b600080fd5b600060ff82169050919050565b610f3e81610f28565b8114610f4957600080fd5b50565b600081359050610f5b81610f35565b92915050565b600060208284031215610f7757610f76610f1e565b5b6000610f8584828501610f4c565b91505092915050565b600081519050919050565b600082825260208201905092915050565b60005b83811015610fc8578082015181840152602081019050610fad565b60008484015250505050565b6000601f19601f8301169050919050565b6000610ff082610f8e565b610ffa8185610f99565b935061100a818560208601610faa565b61101381610fd4565b840191505092915050565b61102781610f28565b82525050565b7f4e487b7100000000000000000000000000000000000000000000000000000000600052602160045260246000fd5b6002811061106d5761106c61102d565b5b50565b600081905061107e8261105c565b919050565b600061108e82611070565b9050919050565b61109e81611083565b82525050565b600073ffffffffffffffffffffffffffffffffffffffff82169050919050565b60006110cf826110a4565b9050919050565b6110df816110c4565b82525050565b600060a08301600083015184820360008601526111028282610fe5565b9150506020830151611117602086018261101e565b506040830151848203604086015261112f8282610fe5565b91505060608301516111446060860182611095565b50608083015161115760808601826110d6565b508091505092915050565b6000602082019050818103600083015261117c81846110e5565b905092915050565b600080fd5b600080fd5b7f4e487b7100000000000000000000000000000000000000000000000000000000600052604160045260246000fd5b6111c682610fd4565b810181811067ffffffffffffffff821117156111e5576111e461118e565b5b80604052505050565b60006111f8610f14565b905061120482826111bd565b919050565b600067ffffffffffffffff8211156112245761122361118e565b5b61122d82610fd4565b9050602081019050919050565b82818337600083830152505050565b600061125c61125784611209565b6111ee565b90508281526020810184848401111561127857611277611189565b5b61128384828561123a565b509392505050565b600082601f8301126112a05761129f611184565b5b81356112b0848260208601611249565b91505092915050565b600281106112c657600080fd5b50565b6000813590506112d8816112b9565b92915050565b600080600080608085870312156112f8576112f7610f1e565b5b600085013567ffffffffffffffff81111561131657611315610f23565b5b6113228782880161128b565b945050602061133387828801610f4c565b935050604085013567ffffffffffffffff81111561135457611353610f23565b5b6113608782880161128b565b9250506060611371878288016112c9565b91505092959194509250565b60006020828403121561139357611392610f1e565b5b600082013567ffffffffffffffff8111156113b1576113b0610f23565b5b6113bd8482850161128b565b91505092915050565b6113cf81610ee0565b81146113da57600080fd5b50565b6000813590506113ec816113c6565b92915050565b60006020828403121561140857611407610f1e565b5b6000611416848285016113dd565b91505092915050565b611428816110c4565b811461143357600080fd5b50565b6000813590506114458161141f565b92915050565b60006020828403121561146157611460610f1e565b5b600061146f84828501611436565b91505092915050565b600081519050919050565b600082825260208201905092915050565b6000819050602082019050919050565b600060a08301600083015184820360008601526114c18282610fe5565b91505060208301516114d6602086018261101e565b50604083015184820360408601526114ee8282610fe5565b91505060608301516115036060860182611095565b50608083015161151660808601826110d6565b508091505092915050565b600061152d83836114a4565b905092915050565b6000602082019050919050565b600061154d82611478565b6115578185611483565b93508360208202850161156985611494565b8060005b858110156115a557848403895281516115868582611521565b945061159183611535565b925060208a0199505060018101905061156d565b50829750879550505050505092915050565b600060208201905081810360008301526115d18184611542565b905092915050565b7f4e487b7100000000000000000000000000000000000000000000000000000000600052602260045260246000fd5b6000600282049050600182168061162057607f821691505b602082108103611633576116326115d9565b5b50919050565b600082825260208201905092915050565b7f596f7520617265206e6f74207468652061646d696e0000000000000000000000600082015250565b6000611680601583611639565b915061168b8261164a565b602082019050919050565b600060208201905081810360008301526116af81611673565b9050919050565b7f4e6f206665657320746f20776974686472617700000000000000000000000000600082015250565b60006116ec601383611639565b91506116f7826116b6565b602082019050919050565b6000602082019050818103600083015261171b816116df565b9050919050565b600081905092915050565b50565b600061173d600083611722565b91506117488261172d565b600082019050919050565b600061175e82611730565b9150819050919050565b7f746865207363686f6f6c2062616c616e63652063616e6e6f742062652077697460008201527f68647261776e20636f73206974206661696c6564000000000000000000000000602082015250565b60006117c4603483611639565b91506117cf82611768565b604082019050919050565b600060208201905081810360008301526117f3816117b7565b9050919050565b7f496e73756666696369656e7420726567697374726174696f6e20666565000000600082015250565b6000611830601d83611639565b915061183b826117fa565b602082019050919050565b6000602082019050818103600083015261185f81611823565b9050919050565b7f4e487b7100000000000000000000000000000000000000000000000000000000600052601160045260246000fd5b60006118a082610f28565b915060ff82036118b3576118b2611866565b5b600182019050919050565b60008190508160005260206000209050919050565b60006020601f8301049050919050565b600082821b905092915050565b6000600883026119207fffffffffffffffffffffffffffffffffffffffffffffffffffffffffffffffff826118e3565b61192a86836118e3565b95508019841693508086168417925050509392505050565b6000819050919050565b600061196761196261195d84610ee0565b611942565b610ee0565b9050919050565b6000819050919050565b6119818361194c565b61199561198d8261196e565b8484546118f0565b825550505050565b600090565b6119aa61199d565b6119b5818484611978565b505050565b5b818110156119d9576119ce6000826119a2565b6001810190506119bb565b5050565b601f821115611a1e576119ef816118be565b6119f8846118d3565b81016020851015611a07578190505b611a1b611a13856118d3565b8301826119ba565b50505b505050565b600082821c905092915050565b6000611a4160001984600802611a23565b1980831691505092915050565b6000611a5a8383611a30565b9150826002028217905092915050565b611a7382610f8e565b67ffffffffffffffff811115611a8c57611a8b61118e565b5b611a968254611608565b611aa18282856119dd565b600060209050601f831160018114611ad45760008415611ac2578287015190505b611acc8582611a4e565b865550611b34565b601f198416611ae2866118be565b60005b82811015611b0a57848901518255600182019150602085019450602081019050611ae5565b86831015611b275784890151611b23601f891682611a30565b8355505b6001600288020188555050505b505050505050565b6000611b4782610ee0565b9150611b5283610ee0565b9250828201905080821115611b6a57611b69611866565b5b92915050565b60008190508160005260206000209050919050565b60008154611b9281611608565b611b9c8186611722565b94506001821660008114611bb75760018114611bcc57611bff565b60ff1983168652811515820286019350611bff565b611bd585611b70565b60005b83811015611bf757815481890152600182019150602081019050611bd8565b838801955050505b50505092915050565b6000611c148284611b85565b915081905092915050565b7f53747564656e74206e6f7420666f756e64000000000000000000000000000000600082015250565b6000611c55601183611639565b9150611c6082611c1f565b602082019050919050565b60006020820190508181036000830152611c8481611c48565b9050919050565b6000611c9682610f28565b9150611ca183610f28565b9250828203905060ff811115611cba57611cb9611866565b5b92915050565b7f4e487b7100000000000000000000000000000000000000000000000000000000600052603260045260246000fdfea264697066735822122095abc022c4d39b7fcf702b5946e5cdeced0fab367bbc7cef5e70b7ee03e8fa8b64736f6c634300081c0033",
          "opcodes": "PUSH1 0x80 PUSH1 0x40 MSTORE PUSH7 0x2386F26FC10000 PUSH1 0x1 SSTORE PUSH1 0x0 PUSH1 0x5 PUSH1 0x0 PUSH2 0x100 EXP DUP2 SLOAD DUP2 PUSH1 0xFF MUL NOT AND SWAP1 DUP4 PUSH1 0xFF AND MUL OR SWAP1 SSTORE POP CALLVALUE DUP1 ISZERO PUSH1 0x36 JUMPI PUSH1 0x0 DUP1 REVERT JUMPDEST POP CALLER PUSH1 0x0 DUP1 PUSH2 0x100 EXP DUP2 SLOAD DUP2 PUSH20 0xFFFFFFFFFFFFFFFFFFFFFFFFFFFFFFFFFFFFFFFF MUL NOT AND SWAP1 DUP4 PUSH20 0xFFFFFFFFFFFFFFFFFFFFFFFFFFFFFFFFFFFFFFFF AND MUL OR SWAP1 SSTORE POP PUSH2 0x1D25 DUP1 PUSH2 0x86 PUSH1 0x0 CODECOPY PUSH1 0x0 RETURN INVALID PUSH1 0x80 PUSH1 0x40 MSTORE PUSH1 0x4 CALLDATASIZE LT PUSH2 0x7F JUMPI PUSH1 0x0 CALLDATALOAD PUSH1 0xE0 SHR DUP1 PUSH4 0xAC7245B5 GT PUSH2 0x4E JUMPI DUP1 PUSH4 0xAC7245B5 EQ PUSH2 0x126 JUMPI DUP1 PUSH4 0xAF582C6B EQ PUSH2 0x163 JUMPI DUP1 PUSH4 0xE2982C21 EQ PUSH2 0x18C JUMPI DUP1 PUSH4 0xF1D064B3 EQ PUSH2 0x1C9 JUMPI PUSH2 0x86 JUMP JUMPDEST DUP1 PUSH4 0x14C44E09 EQ PUSH2 0x8B JUMPI DUP1 PUSH4 0x1FD30892 EQ PUSH2 0xB6 JUMPI DUP1 PUSH4 0x476343EE EQ PUSH2 0xF3 JUMPI DUP1 PUSH4 0x7FE8C909 EQ PUSH2 0x10A JUMPI PUSH2 0x86 JUMP JUMPDEST CALLDATASIZE PUSH2 0x86 JUMPI STOP JUMPDEST PUSH1 0x0 DUP1 REVERT JUMPDEST CALLVALUE DUP1 ISZERO PUSH2 0x97 JUMPI PUSH1 0x0 DUP1 REVERT JUMPDEST POP PUSH2 0xA0 PUSH2 0x1F4 JUMP JUMPDEST PUSH1 0x40 MLOAD PUSH2 0xAD SWAP2 SWAP1 PUSH2 0xEF9 JUMP JUMPDEST PUSH1 0x40 MLOAD DUP1 SWAP2 SUB SWAP1 RETURN JUMPDEST CALLVALUE DUP1 ISZERO PUSH2 0xC2 JUMPI PUSH1 0x0 DUP1 REVERT JUMPDEST POP PUSH2 0xDD PUSH1 0x4 DUP1 CALLDATASIZE SUB DUP2 ADD SWAP1 PUSH2 0xD8 SWAP2 SWAP1 PUSH2 0xF61 JUMP JUMPDEST PUSH2 0x1FA JUMP JUMPDEST PUSH1 0x40 MLOAD PUSH2 0xEA SWAP2 SWAP1 PUSH2 0x1162 JUMP JUMPDEST PUSH1 0x40 MLOAD DUP1 SWAP2 SUB SWAP1 RETURN JUMPDEST CALLVALUE DUP1 ISZERO PUSH2 0xFF JUMPI PUSH1 0x0 DUP1 REVERT JUMPDEST POP PUSH2 0x108 PUSH2 0x3FF JUMP JUMPDEST STOP JUMPDEST PUSH2 0x124 PUSH1 0x4 DUP1 CALLDATASIZE SUB DUP2 ADD SWAP1 PUSH2 0x11F SWAP2 SWAP1 PUSH2 0x12DE JUMP JUMPDEST PUSH2 0x5A6 JUMP JUMPDEST STOP JUMPDEST CALLVALUE DUP1 ISZERO PUSH2 0x132 JUMPI PUSH1 0x0 DUP1 REVERT JUMPDEST POP PUSH2 0x14D PUSH1 0x4 DUP1 CALLDATASIZE SUB DUP2 ADD SWAP1 PUSH2 0x148 SWAP2 SWAP1 PUSH2 0x137D JUMP JUMPDEST PUSH2 0x854 JUMP JUMPDEST PUSH1 0x40 MLOAD PUSH2 0x15A SWAP2 SWAP1 PUSH2 0x1162 JUMP JUMPDEST PUSH1 0x40 MLOAD DUP1 SWAP2 SUB SWAP1 RETURN JUMPDEST CALLVALUE DUP1 ISZERO PUSH2 0x16F JUMPI PUSH1 0x0 DUP1 REVERT JUMPDEST POP PUSH2 0x18A PUSH1 0x4 DUP1 CALLDATASIZE SUB DUP2 ADD SWAP1 PUSH2 0x185 SWAP2 SWAP1 PUSH2 0x13F2 JUMP JUMPDEST PUSH2 0xB0F JUMP JUMPDEST STOP JUMPDEST CALLVALUE DUP1 ISZERO PUSH2 0x198 JUMPI PUSH1 0x0 DUP1 REVERT JUMPDEST POP PUSH2 0x1B3 PUSH1 0x4 DUP1 CALLDATASIZE SUB DUP2 ADD SWAP1 PUSH2 0x1AE SWAP2 SWAP1 PUSH2 0x144B JUMP JUMPDEST PUSH2 0xBA7 JUMP JUMPDEST PUSH1 0x40 MLOAD PUSH2 0x1C0 SWAP2 SWAP1 PUSH2 0xEF9 JUMP JUMPDEST PUSH1 0x40 MLOAD DUP1 SWAP2 SUB SWAP1 RETURN JUMPDEST CALLVALUE DUP1 ISZERO PUSH2 0x1D5 JUMPI PUSH1 0x0 DUP1 REVERT JUMPDEST POP PUSH2 0x1DE PUSH2 0xBBF JUMP JUMPDEST PUSH1 0x40 MLOAD PUSH2 0x1EB SWAP2 SWAP1 PUSH2 0x15B7 JUMP JUMPDEST PUSH1 0x40 MLOAD DUP1 SWAP2 SUB SWAP1 RETURN JUMPDEST PUSH1 0x1 SLOAD DUP2 JUMP JUMPDEST PUSH2 0x202 PUSH2 0xE86 JUMP JUMPDEST PUSH1 0x3 PUSH1 0x0 DUP4 PUSH1 0xFF AND PUSH1 0xFF AND DUP2 MSTORE PUSH1 0x20 ADD SWAP1 DUP2 MSTORE PUSH1 0x20 ADD PUSH1 0x0 KECCAK256 PUSH1 0x40 MLOAD DUP1 PUSH1 0xA0 ADD PUSH1 0x40 MSTORE SWAP1 DUP2 PUSH1 0x0 DUP3 ADD DUP1 SLOAD PUSH2 0x236 SWAP1 PUSH2 0x1608 JUMP JUMPDEST DUP1 PUSH1 0x1F ADD PUSH1 0x20 DUP1 SWAP2 DIV MUL PUSH1 0x20 ADD PUSH1 0x40 MLOAD SWAP1 DUP2 ADD PUSH1 0x40 MSTORE DUP1 SWAP3 SWAP2 SWAP1 DUP2 DUP2 MSTORE PUSH1 0x20 ADD DUP3 DUP1 SLOAD PUSH2 0x262 SWAP1 PUSH2 0x1608 JUMP JUMPDEST DUP1 ISZERO PUSH2 0x2AF JUMPI DUP1 PUSH1 0x1F LT PUSH2 0x284 JUMPI PUSH2 0x100 DUP1 DUP4 SLOAD DIV MUL DUP4 MSTORE SWAP2 PUSH1 0x20 ADD SWAP2 PUSH2 0x2AF JUMP JUMPDEST DUP3 ADD SWAP2 SWAP1 PUSH1 0x0 MSTORE PUSH1 0x20 PUSH1 0x0 KECCAK256 SWAP1 JUMPDEST DUP2 SLOAD DUP2 MSTORE SWAP1 PUSH1 0x1 ADD SWAP1 PUSH1 0x20 ADD DUP1 DUP4 GT PUSH2 0x292 JUMPI DUP3 SWAP1 SUB PUSH1 0x1F AND DUP3 ADD SWAP2 JUMPDEST POP POP POP POP POP DUP2 MSTORE PUSH1 0x20 ADD PUSH1 0x1 DUP3 ADD PUSH1 0x0 SWAP1 SLOAD SWAP1 PUSH2 0x100 EXP SWAP1 DIV PUSH1 0xFF AND PUSH1 0xFF AND PUSH1 0xFF AND DUP2 MSTORE PUSH1 0x20 ADD PUSH1 0x2 DUP3 ADD DUP1 SLOAD PUSH2 0x2E5 SWAP1 PUSH2 0x1608 JUMP JUMPDEST DUP1 PUSH1 0x1F ADD PUSH1 0x20 DUP1 SWAP2 DIV MUL PUSH1 0x20 ADD PUSH1 0x40 MLOAD SWAP1 DUP2 ADD PUSH1 0x40 MSTORE DUP1 SWAP3 SWAP2 SWAP1 DUP2 DUP2 MSTORE PUSH1 0x20 ADD DUP3 DUP1 SLOAD PUSH2 0x311 SWAP1 PUSH2 0x1608 JUMP JUMPDEST DUP1 ISZERO PUSH2 0x35E JUMPI DUP1 PUSH1 0x1F LT PUSH2 0x333 JUMPI PUSH2 0x100 DUP1 DUP4 SLOAD DIV MUL DUP4 MSTORE SWAP2 PUSH1 0x20 ADD SWAP2 PUSH2 0x35E JUMP JUMPDEST DUP3 ADD SWAP2 SWAP1 PUSH1 0x0 MSTORE PUSH1 0x20 PUSH1 0x0 KECCAK256 SWAP1 JUMPDEST DUP2 SLOAD DUP2 MSTORE SWAP1 PUSH1 0x1 ADD SWAP1 PUSH1 0x20 ADD DUP1 DUP4 GT PUSH2 0x341 JUMPI DUP3 SWAP1 SUB PUSH1 0x1F AND DUP3 ADD SWAP2 JUMPDEST POP POP POP POP POP DUP2 MSTORE PUSH1 0x20 ADD PUSH1 0x3 DUP3 ADD PUSH1 0x0 SWAP1 SLOAD SWAP1 PUSH2 0x100 EXP SWAP1 DIV PUSH1 0xFF AND PUSH1 0x1 DUP2 GT ISZERO PUSH2 0x38C JUMPI PUSH2 0x38B PUSH2 0x102D JUMP JUMPDEST JUMPDEST PUSH1 0x1 DUP2 GT ISZERO PUSH2 0x39E JUMPI PUSH2 0x39D PUSH2 0x102D JUMP JUMPDEST JUMPDEST DUP2 MSTORE PUSH1 0x20 ADD PUSH1 0x3 DUP3 ADD PUSH1 0x1 SWAP1 SLOAD SWAP1 PUSH2 0x100 EXP SWAP1 DIV PUSH20 0xFFFFFFFFFFFFFFFFFFFFFFFFFFFFFFFFFFFFFFFF AND PUSH20 0xFFFFFFFFFFFFFFFFFFFFFFFFFFFFFFFFFFFFFFFF AND PUSH20 0xFFFFFFFFFFFFFFFFFFFFFFFFFFFFFFFFFFFFFFFF AND DUP2 MSTORE POP POP SWAP1 POP SWAP2 SWAP1 POP JUMP JUMPDEST PUSH1 0x0 DUP1 SLOAD SWAP1 PUSH2 0x100 EXP SWAP1 DIV PUSH20 0xFFFFFFFFFFFFFFFFFFFFFFFFFFFFFFFFFFFFFFFF AND PUSH20 0xFFFFFFFFFFFFFFFFFFFFFFFFFFFFFFFFFFFFFFFF AND CALLER PUSH20 0xFFFFFFFFFFFFFFFFFFFFFFFFFFFFFFFFFFFFFFFF AND EQ PUSH2 0x48D JUMPI PUSH1 0x40 MLOAD PUSH32 0x8C379A000000000000000000000000000000000000000000000000000000000 DUP2 MSTORE PUSH1 0x4 ADD PUSH2 0x484 SWAP1 PUSH2 0x1696 JUMP JUMPDEST PUSH1 0x40 MLOAD DUP1 SWAP2 SUB SWAP1 REVERT JUMPDEST PUSH1 0x0 SELFBALANCE SWAP1 POP PUSH1 0x0 DUP2 GT PUSH2 0x4D5 JUMPI PUSH1 0x40 MLOAD PUSH32 0x8C379A000000000000000000000000000000000000000000000000000000000 DUP2 MSTORE PUSH1 0x4 ADD PUSH2 0x4CC SWAP1 PUSH2 0x1702 JUMP JUMPDEST PUSH1 0x40 MLOAD DUP1 SWAP2 SUB SWAP1 REVERT JUMPDEST PUSH1 0x0 DUP1 PUSH1 0x0 SWAP1 SLOAD SWAP1 PUSH2 0x100 EXP SWAP1 DIV PUSH20 0xFFFFFFFFFFFFFFFFFFFFFFFFFFFFFFFFFFFFFFFF AND PUSH20 0xFFFFFFFFFFFFFFFFFFFFFFFFFFFFFFFFFFFFFFFF AND DUP3 PUSH1 0x40 MLOAD PUSH2 0x51C SWAP1 PUSH2 0x1753 JUMP JUMPDEST PUSH1 0x0 PUSH1 0x40 MLOAD DUP1 DUP4 SUB DUP2 DUP6 DUP8 GAS CALL SWAP3 POP POP POP RETURNDATASIZE DUP1 PUSH1 0x0 DUP2 EQ PUSH2 0x559 JUMPI PUSH1 0x40 MLOAD SWAP2 POP PUSH1 0x1F NOT PUSH1 0x3F RETURNDATASIZE ADD AND DUP3 ADD PUSH1 0x40 MSTORE RETURNDATASIZE DUP3 MSTORE RETURNDATASIZE PUSH1 0x0 PUSH1 0x20 DUP5 ADD RETURNDATACOPY PUSH2 0x55E JUMP JUMPDEST PUSH1 0x60 SWAP2 POP JUMPDEST POP POP SWAP1 POP DUP1 PUSH2 0x5A2 JUMPI PUSH1 0x40 MLOAD PUSH32 0x8C379A000000000000000000000000000000000000000000000000000000000 DUP2 MSTORE PUSH1 0x4 ADD PUSH2 0x599 SWAP1 PUSH2 0x17DA JUMP JUMPDEST PUSH1 0x40 MLOAD DUP1 SWAP2 SUB SWAP1 REVERT JUMPDEST POP POP JUMP JUMPDEST PUSH1 0x0 DUP1 SLOAD SWAP1 PUSH2 0x100 EXP SWAP1 DIV PUSH20 0xFFFFFFFFFFFFFFFFFFFFFFFFFFFFFFFFFFFFFFFF AND PUSH20 0xFFFFFFFFFFFFFFFFFFFFFFFFFFFFFFFFFFFFFFFF AND CALLER PUSH20 0xFFFFFFFFFFFFFFFFFFFFFFFFFFFFFFFFFFFFFFFF AND EQ PUSH2 0x634 JUMPI PUSH1 0x40 MLOAD PUSH32 0x8C379A000000000000000000000000000000000000000000000000000000000 DUP2 MSTORE PUSH1 0x4 ADD PUSH2 0x62B SWAP1 PUSH2 0x1696 JUMP JUMPDEST PUSH1 0x40 MLOAD DUP1 SWAP2 SUB SWAP1 REVERT JUMPDEST PUSH1 0x1 SLOAD CALLVALUE LT ISZERO PUSH2 0x679 JUMPI PUSH1 0x40 MLOAD PUSH32 0x8C379A000000000000000000000000000000000000000000000000000000000 DUP2 MSTORE PUSH1 0x4 ADD PUSH2 0x670 SWAP1 PUSH2 0x1846 JUMP JUMPDEST PUSH1 0x40 MLOAD DUP1 SWAP2 SUB SWAP1 REVERT JUMPDEST PUSH1 0x0 PUSH1 0x40 MLOAD DUP1 PUSH1 0xA0 ADD PUSH1 0x40 MSTORE DUP1 DUP7 DUP2 MSTORE PUSH1 0x20 ADD DUP6 PUSH1 0xFF AND DUP2 MSTORE PUSH1 0x20 ADD DUP5 DUP2 MSTORE PUSH1 0x20 ADD DUP4 PUSH1 0x1 DUP2 GT ISZERO PUSH2 0x6AE JUMPI PUSH2 0x6AD PUSH2 0x102D JUMP JUMPDEST JUMPDEST DUP2 MSTORE PUSH1 0x20 ADD CALLER PUSH20 0xFFFFFFFFFFFFFFFFFFFFFFFFFFFFFFFFFFFFFFFF AND DUP2 MSTORE POP SWAP1 POP PUSH1 0x5 PUSH1 0x0 DUP2 DUP2 SWAP1 SLOAD SWAP1 PUSH2 0x100 EXP SWAP1 DIV PUSH1 0xFF AND DUP1 SWAP3 SWAP2 SWAP1 PUSH2 0x6EE SWAP1 PUSH2 0x1895 JUMP JUMPDEST SWAP2 SWAP1 PUSH2 0x100 EXP DUP2 SLOAD DUP2 PUSH1 0xFF MUL NOT AND SWAP1 DUP4 PUSH1 0xFF AND MUL OR SWAP1 SSTORE POP POP DUP1 PUSH1 0x3 PUSH1 0x0 PUSH1 0x5 PUSH1 0x0 SWAP1 SLOAD SWAP1 PUSH2 0x100 EXP SWAP1 DIV PUSH1 0xFF AND PUSH1 0xFF AND PUSH1 0xFF AND DUP2 MSTORE PUSH1 0x20 ADD SWAP1 DUP2 MSTORE PUSH1 0x20 ADD PUSH1 0x0 KECCAK256 PUSH1 0x0 DUP3 ADD MLOAD DUP2 PUSH1 0x0 ADD SWAP1 DUP2 PUSH2 0x745 SWAP2 SWAP1 PUSH2 0x1A6A JUMP JUMPDEST POP PUSH1 0x20 DUP3 ADD MLOAD DUP2 PUSH1 0x1 ADD PUSH1 0x0 PUSH2 0x100 EXP DUP2 SLOAD DUP2 PUSH1 0xFF MUL NOT AND SWAP1 DUP4 PUSH1 0xFF AND MUL OR SWAP1 SSTORE POP PUSH1 0x40 DUP3 ADD MLOAD DUP2 PUSH1 0x2 ADD SWAP1 DUP2 PUSH2 0x77C SWAP2 SWAP1 PUSH2 0x1A6A JUMP JUMPDEST POP PUSH1 0x60 DUP3 ADD MLOAD DUP2 PUSH1 0x3 ADD PUSH1 0x0 PUSH2 0x100 EXP DUP2 SLOAD DUP2 PUSH1 0xFF MUL NOT AND SWAP1 DUP4 PUSH1 0x1 DUP2 GT ISZERO PUSH2 0x7A8 JUMPI PUSH2 0x7A7 PUSH2 0x102D JUMP JUMPDEST JUMPDEST MUL OR SWAP1 SSTORE POP PUSH1 0x80 DUP3 ADD MLOAD DUP2 PUSH1 0x3 ADD PUSH1 0x1 PUSH2 0x100 EXP DUP2 SLOAD DUP2 PUSH20 0xFFFFFFFFFFFFFFFFFFFFFFFFFFFFFFFFFFFFFFFF MUL NOT AND SWAP1 DUP4 PUSH20 0xFFFFFFFFFFFFFFFFFFFFFFFFFFFFFFFFFFFFFFFF AND MUL OR SWAP1 SSTORE POP SWAP1 POP POP CALLVALUE PUSH1 0x4 PUSH1 0x0 CALLER PUSH20 0xFFFFFFFFFFFFFFFFFFFFFFFFFFFFFFFFFFFFFFFF AND PUSH20 0xFFFFFFFFFFFFFFFFFFFFFFFFFFFFFFFFFFFFFFFF AND DUP2 MSTORE PUSH1 0x20 ADD SWAP1 DUP2 MSTORE PUSH1 0x20 ADD PUSH1 0x0 KECCAK256 PUSH1 0x0 DUP3 DUP3 SLOAD PUSH2 0x846 SWAP2 SWAP1 PUSH2 0x1B3C JUMP JUMPDEST SWAP3 POP POP DUP2 SWAP1 SSTORE POP POP POP POP POP POP JUMP JUMPDEST PUSH2 0x85C PUSH2 0xE86 JUMP JUMPDEST PUSH1 0x0 PUSH1 0x1 SWAP1 POP JUMPDEST PUSH1 0x5 PUSH1 0x0 SWAP1 SLOAD SWAP1 PUSH2 0x100 EXP SWAP1 DIV PUSH1 0xFF AND PUSH1 0xFF AND DUP2 PUSH1 0xFF AND GT PUSH2 0xACE JUMPI DUP3 DUP1 MLOAD SWAP1 PUSH1 0x20 ADD KECCAK256 PUSH1 0x3 PUSH1 0x0 DUP4 PUSH1 0xFF AND PUSH1 0xFF AND DUP2 MSTORE PUSH1 0x20 ADD SWAP1 DUP2 MSTORE PUSH1 0x20 ADD PUSH1 0x0 KECCAK256 PUSH1 0x0 ADD PUSH1 0x40 MLOAD PUSH2 0x8B0 SWAP2 SWAP1 PUSH2 0x1C08 JUMP JUMPDEST PUSH1 0x40 MLOAD DUP1 SWAP2 SUB SWAP1 KECCAK256 SUB PUSH2 0xABB JUMPI PUSH1 0x3 PUSH1 0x0 DUP3 PUSH1 0xFF AND PUSH1 0xFF AND DUP2 MSTORE PUSH1 0x20 ADD SWAP1 DUP2 MSTORE PUSH1 0x20 ADD PUSH1 0x0 KECCAK256 PUSH1 0x40 MLOAD DUP1 PUSH1 0xA0 ADD PUSH1 0x40 MSTORE SWAP1 DUP2 PUSH1 0x0 DUP3 ADD DUP1 SLOAD PUSH2 0x8F1 SWAP1 PUSH2 0x1608 JUMP JUMPDEST DUP1 PUSH1 0x1F ADD PUSH1 0x20 DUP1 SWAP2 DIV MUL PUSH1 0x20 ADD PUSH1 0x40 MLOAD SWAP1 DUP2 ADD PUSH1 0x40 MSTORE DUP1 SWAP3 SWAP2 SWAP1 DUP2 DUP2 MSTORE PUSH1 0x20 ADD DUP3 DUP1 SLOAD PUSH2 0x91D SWAP1 PUSH2 0x1608 JUMP JUMPDEST DUP1 ISZERO PUSH2 0x96A JUMPI DUP1 PUSH1 0x1F LT PUSH2 0x93F JUMPI PUSH2 0x100 DUP1 DUP4 SLOAD DIV MUL DUP4 MSTORE SWAP2 PUSH1 0x20 ADD SWAP2 PUSH2 0x96A JUMP JUMPDEST DUP3 ADD SWAP2 SWAP1 PUSH1 0x0 MSTORE PUSH1 0x20 PUSH1 0x0 KECCAK256 SWAP1 JUMPDEST DUP2 SLOAD DUP2 MSTORE SWAP1 PUSH1 0x1 ADD SWAP1 PUSH1 0x20 ADD DUP1 DUP4 GT PUSH2 0x94D JUMPI DUP3 SWAP1 SUB PUSH1 0x1F AND DUP3 ADD SWAP2 JUMPDEST POP POP POP POP POP DUP2 MSTORE PUSH1 0x20 ADD PUSH1 0x1 DUP3 ADD PUSH1 0x0 SWAP1 SLOAD SWAP1 PUSH2 0x100 EXP SWAP1 DIV PUSH1 0xFF AND PUSH1 0xFF AND PUSH1 0xFF AND DUP2 MSTORE PUSH1 0x20 ADD PUSH1 0x2 DUP3 ADD DUP1 SLOAD PUSH2 0x9A0 SWAP1 PUSH2 0x1608 JUMP JUMPDEST DUP1 PUSH1 0x1F ADD PUSH1 0x20 DUP1 SWAP2 DIV MUL PUSH1 0x20 ADD PUSH1 0x40 MLOAD SWAP1 DUP2 ADD PUSH1 0x40 MSTORE DUP1 SWAP3 SWAP2 SWAP1 DUP2 DUP2 MSTORE PUSH1 0x20 ADD DUP3 DUP1 SLOAD PUSH2 0x9CC SWAP1 PUSH2 0x1608 JUMP JUMPDEST DUP1 ISZERO PUSH2 0xA19 JUMPI DUP1 PUSH1 0x1F LT PUSH2 0x9EE JUMPI PUSH2 0x100 DUP1 DUP4 SLOAD DIV MUL DUP4 MSTORE SWAP2 PUSH1 0x20 ADD SWAP2 PUSH2 0xA19 JUMP JUMPDEST DUP3 ADD SWAP2 SWAP1 PUSH1 0x0 MSTORE PUSH1 0x20 PUSH1 0x0 KECCAK256 SWAP1 JUMPDEST DUP2 SLOAD DUP2 MSTORE SWAP1 PUSH1 0x1 ADD SWAP1 PUSH1 0x20 ADD DUP1 DUP4 GT PUSH2 0x9FC JUMPI DUP3 SWAP1 SUB PUSH1 0x1F AND DUP3 ADD SWAP2 JUMPDEST POP POP POP POP POP DUP2 MSTORE PUSH1 0x20 ADD PUSH1 0x3 DUP3 ADD PUSH1 0x0 SWAP1 SLOAD SWAP1 PUSH2 0x100 EXP SWAP1 DIV PUSH1 0xFF AND PUSH1 0x1 DUP2 GT ISZERO PUSH2 0xA47 JUMPI PUSH2 0xA46 PUSH2 0x102D JUMP JUMPDEST JUMPDEST PUSH1 0x1 DUP2 GT ISZERO PUSH2 0xA59 JUMPI PUSH2 0xA58 PUSH2 0x102D JUMP JUMPDEST JUMPDEST DUP2 MSTORE PUSH1 0x20 ADD PUSH1 0x3 DUP3 ADD PUSH1 0x1 SWAP1 SLOAD SWAP1 PUSH2 0x100 EXP SWAP1 DIV PUSH20 0xFFFFFFFFFFFFFFFFFFFFFFFFFFFFFFFFFFFFFFFF AND PUSH20 0xFFFFFFFFFFFFFFFFFFFFFFFFFFFFFFFFFFFFFFFF AND PUSH20 0xFFFFFFFFFFFFFFFFFFFFFFFFFFFFFFFFFFFFFFFF AND DUP2 MSTORE POP POP SWAP2 POP POP PUSH2 0xB0A JUMP JUMPDEST DUP1 DUP1 PUSH2 0xAC6 SWAP1 PUSH2 0x1895 JUMP JUMPDEST SWAP2 POP POP PUSH2 0x863 JUMP JUMPDEST POP PUSH1 0x40 MLOAD PUSH32 0x8C379A000000000000000000000000000000000000000000000000000000000 DUP2 MSTORE PUSH1 0x4 ADD PUSH2 0xB01 SWAP1 PUSH2 0x1C6B JUMP JUMPDEST PUSH1 0x40 MLOAD DUP1 SWAP2 SUB SWAP1 REVERT JUMPDEST SWAP2 SWAP1 POP JUMP JUMPDEST PUSH1 0x0 DUP1 SLOAD SWAP1 PUSH2 0x100 EXP SWAP1 DIV PUSH20 0xFFFFFFFFFFFFFFFFFFFFFFFFFFFFFFFFFFFFFFFF AND PUSH20 0xFFFFFFFFFFFFFFFFFFFFFFFFFFFFFFFFFFFFFFFF AND CALLER PUSH20 0xFFFFFFFFFFFFFFFFFFFFFFFFFFFFFFFFFFFFFFFF AND EQ PUSH2 0xB9D JUMPI PUSH1 0x40 MLOAD PUSH32 0x8C379A000000000000000000000000000000000000000000000000000000000 DUP2 MSTORE PUSH1 0x4 ADD PUSH2 0xB94 SWAP1 PUSH2 0x1696 JUMP JUMPDEST PUSH1 0x40 MLOAD DUP1 SWAP2 SUB SWAP1 REVERT JUMPDEST DUP1 PUSH1 0x1 DUP2 SWAP1 SSTORE POP POP JUMP JUMPDEST PUSH1 0x4 PUSH1 0x20 MSTORE DUP1 PUSH1 0x0 MSTORE PUSH1 0x40 PUSH1 0x0 KECCAK256 PUSH1 0x0 SWAP2 POP SWAP1 POP SLOAD DUP2 JUMP JUMPDEST PUSH1 0x60 PUSH1 0x5 PUSH1 0x0 SWAP1 SLOAD SWAP1 PUSH2 0x100 EXP SWAP1 DIV PUSH1 0xFF AND PUSH1 0xFF AND PUSH8 0xFFFFFFFFFFFFFFFF DUP2 GT ISZERO PUSH2 0xBED JUMPI PUSH2 0xBEC PUSH2 0x118E JUMP JUMPDEST JUMPDEST PUSH1 0x40 MLOAD SWAP1 DUP1 DUP3 MSTORE DUP1 PUSH1 0x20 MUL PUSH1 0x20 ADD DUP3 ADD PUSH1 0x40 MSTORE DUP1 ISZERO PUSH2 0xC26 JUMPI DUP2 PUSH1 0x20 ADD JUMPDEST PUSH2 0xC13 PUSH2 0xE86 JUMP JUMPDEST DUP2 MSTORE PUSH1 0x20 ADD SWAP1 PUSH1 0x1 SWAP1 SUB SWAP1 DUP2 PUSH2 0xC0B JUMPI SWAP1 POP JUMPDEST POP SWAP1 POP PUSH1 0x0 PUSH1 0x1 SWAP1 POP JUMPDEST PUSH1 0x5 PUSH1 0x0 SWAP1 SLOAD SWAP1 PUSH2 0x100 EXP SWAP1 DIV PUSH1 0xFF AND PUSH1 0xFF AND DUP2 PUSH1 0xFF AND GT PUSH2 0xE82 JUMPI PUSH1 0x3 PUSH1 0x0 DUP3 PUSH1 0xFF AND PUSH1 0xFF AND DUP2 MSTORE PUSH1 0x20 ADD SWAP1 DUP2 MSTORE PUSH1 0x20 ADD PUSH1 0x0 KECCAK256 PUSH1 0x40 MLOAD DUP1 PUSH1 0xA0 ADD PUSH1 0x40 MSTORE SWAP1 DUP2 PUSH1 0x0 DUP3 ADD DUP1 SLOAD PUSH2 0xC80 SWAP1 PUSH2 0x1608 JUMP JUMPDEST DUP1 PUSH1 0x1F ADD PUSH1 0x20 DUP1 SWAP2 DIV MUL PUSH1 0x20 ADD PUSH1 0x40 MLOAD SWAP1 DUP2 ADD PUSH1 0x40 MSTORE DUP1 SWAP3 SWAP2 SWAP1 DUP2 DUP2 MSTORE PUSH1 0x20 ADD DUP3 DUP1 SLOAD PUSH2 0xCAC SWAP1 PUSH2 0x1608 JUMP JUMPDEST DUP1 ISZERO PUSH2 0xCF9 JUMPI DUP1 PUSH1 0x1F LT PUSH2 0xCCE JUMPI PUSH2 0x100 DUP1 DUP4 SLOAD DIV MUL DUP4 MSTORE SWAP2 PUSH1 0x20 ADD SWAP2 PUSH2 0xCF9 JUMP JUMPDEST DUP3 ADD SWAP2 SWAP1 PUSH1 0x0 MSTORE PUSH1 0x20 PUSH1 0x0 KECCAK256 SWAP1 JUMPDEST DUP2 SLOAD DUP2 MSTORE SWAP1 PUSH1 0x1 ADD SWAP1 PUSH1 0x20 ADD DUP1 DUP4 GT PUSH2 0xCDC JUMPI DUP3 SWAP1 SUB PUSH1 0x1F AND DUP3 ADD SWAP2 JUMPDEST POP POP POP POP POP DUP2 MSTORE PUSH1 0x20 ADD PUSH1 0x1 DUP3 ADD PUSH1 0x0 SWAP1 SLOAD SWAP1 PUSH2 0x100 EXP SWAP1 DIV PUSH1 0xFF AND PUSH1 0xFF AND PUSH1 0xFF AND DUP2 MSTORE PUSH1 0x20 ADD PUSH1 0x2 DUP3 ADD DUP1 SLOAD PUSH2 0xD2F SWAP1 PUSH2 0x1608 JUMP JUMPDEST DUP1 PUSH1 0x1F ADD PUSH1 0x20 DUP1 SWAP2 DIV MUL PUSH1 0x20 ADD PUSH1 0x40 MLOAD SWAP1 DUP2 ADD PUSH1 0x40 MSTORE DUP1 SWAP3 SWAP2 SWAP1 DUP2 DUP2 MSTORE PUSH1 0x20 ADD DUP3 DUP1 SLOAD PUSH2 0xD5B SWAP1 PUSH2 0x1608 JUMP JUMPDEST DUP1 ISZERO PUSH2 0xDA8 JUMPI DUP1 PUSH1 0x1F LT PUSH2 0xD7D JUMPI PUSH2 0x100 DUP1 DUP4 SLOAD DIV MUL DUP4 MSTORE SWAP2 PUSH1 0x20 ADD SWAP2 PUSH2 0xDA8 JUMP JUMPDEST DUP3 ADD SWAP2 SWAP1 PUSH1 0x0 MSTORE PUSH1 0x20 PUSH1 0x0 KECCAK256 SWAP1 JUMPDEST DUP2 SLOAD DUP2 MSTORE SWAP1 PUSH1 0x1 ADD SWAP1 PUSH1 0x20 ADD DUP1 DUP4 GT PUSH2 0xD8B JUMPI DUP3 SWAP1 SUB PUSH1 0x1F AND DUP3 ADD SWAP2 JUMPDEST POP POP POP POP POP DUP2 MSTORE PUSH1 0x20 ADD PUSH1 0x3 DUP3 ADD PUSH1 0x0 SWAP1 SLOAD SWAP1 PUSH2 0x100 EXP SWAP1 DIV PUSH1 0xFF AND PUSH1 0x1 DUP2 GT ISZERO PUSH2 0xDD6 JUMPI PUSH2 0xDD5 PUSH2 0x102D JUMP JUMPDEST JUMPDEST PUSH1 0x1 DUP2 GT ISZERO PUSH2 0xDE8 JUMPI PUSH2 0xDE7 PUSH2 0x102D JUMP JUMPDEST JUMPDEST DUP2 MSTORE PUSH1 0x20 ADD PUSH1 0x3 DUP3 ADD PUSH1 0x1 SWAP1 SLOAD SWAP1 PUSH2 0x100 EXP SWAP1 DIV PUSH20 0xFFFFFFFFFFFFFFFFFFFFFFFFFFFFFFFFFFFFFFFF AND PUSH20 0xFFFFFFFFFFFFFFFFFFFFFFFFFFFFFFFFFFFFFFFF AND PUSH20 0xFFFFFFFFFFFFFFFFFFFFFFFFFFFFFFFFFFFFFFFF AND DUP2 MSTORE POP POP DUP3 PUSH1 0x1 DUP4 PUSH2 0xE50 SWAP2 SWAP1 PUSH2 0x1C8B JUMP JUMPDEST PUSH1 0xFF AND DUP2 MLOAD DUP2 LT PUSH2 0xE64 JUMPI PUSH2 0xE63 PUSH2 0x1CC0 JUMP JUMPDEST JUMPDEST PUSH1 0x20 MUL PUSH1 0x20 ADD ADD DUP2 SWAP1 MSTORE POP DUP1 DUP1 PUSH2 0xE7A SWAP1 PUSH2 0x1895 JUMP JUMPDEST SWAP2 POP POP PUSH2 0xC30 JUMP JUMPDEST POP SWAP1 JUMP JUMPDEST PUSH1 0x40 MLOAD DUP1 PUSH1 0xA0 ADD PUSH1 0x40 MSTORE DUP1 PUSH1 0x60 DUP2 MSTORE PUSH1 0x20 ADD PUSH1 0x0 PUSH1 0xFF AND DUP2 MSTORE PUSH1 0x20 ADD PUSH1 0x60 DUP2 MSTORE PUSH1 0x20 ADD PUSH1 0x0 PUSH1 0x1 DUP2 GT ISZERO PUSH2 0xEBD JUMPI PUSH2 0xEBC PUSH2 0x102D JUMP JUMPDEST JUMPDEST DUP2 MSTORE PUSH1 0x20 ADD PUSH1 0x0 PUSH20 0xFFFFFFFFFFFFFFFFFFFFFFFFFFFFFFFFFFFFFFFF AND DUP2 MSTORE POP SWAP1 JUMP JUMPDEST PUSH1 0x0 DUP2 SWAP1 POP SWAP2 SWAP1 POP JUMP JUMPDEST PUSH2 0xEF3 DUP2 PUSH2 0xEE0 JUMP JUMPDEST DUP3 MSTORE POP POP JUMP JUMPDEST PUSH1 0x0 PUSH1 0x20 DUP3 ADD SWAP1 POP PUSH2 0xF0E PUSH1 0x0 DUP4 ADD DUP5 PUSH2 0xEEA JUMP JUMPDEST SWAP3 SWAP2 POP POP JUMP JUMPDEST PUSH1 0x0 PUSH1 0x40 MLOAD SWAP1 POP SWAP1 JUMP JUMPDEST PUSH1 0x0 DUP1 REVERT JUMPDEST PUSH1 0x0 DUP1 REVERT JUMPDEST PUSH1 0x0 PUSH1 0xFF DUP3 AND SWAP1 POP SWAP2 SWAP1 POP JUMP JUMPDEST PUSH2 0xF3E DUP2 PUSH2 0xF28 JUMP JUMPDEST DUP2 EQ PUSH2 0xF49 JUMPI PUSH1 0x0 DUP1 REVERT JUMPDEST POP JUMP JUMPDEST PUSH1 0x0 DUP2 CALLDATALOAD SWAP1 POP PUSH2 0xF5B DUP2 PUSH2 0xF35 JUMP JUMPDEST SWAP3 SWAP2 POP POP JUMP JUMPDEST PUSH1 0x0 PUSH1 0x20 DUP3 DUP5 SUB SLT ISZERO PUSH2 0xF77 JUMPI PUSH2 0xF76 PUSH2 0xF1E JUMP JUMPDEST JUMPDEST PUSH1 0x0 PUSH2 0xF85 DUP5 DUP3 DUP6 ADD PUSH2 0xF4C JUMP JUMPDEST SWAP2 POP POP SWAP3 SWAP2 POP POP JUMP JUMPDEST PUSH1 0x0 DUP2 MLOAD SWAP1 POP SWAP2 SWAP1 POP JUMP JUMPDEST PUSH1 0x0 DUP3 DUP3 MSTORE PUSH1 0x20 DUP3 ADD SWAP1 POP SWAP3 SWAP2 POP POP JUMP JUMPDEST PUSH1 0x0 JUMPDEST DUP4 DUP2 LT ISZERO PUSH2 0xFC8 JUMPI DUP1 DUP3 ADD MLOAD DUP2 DUP5 ADD MSTORE PUSH1 0x20 DUP2 ADD SWAP1 POP PUSH2 0xFAD JUMP JUMPDEST PUSH1 0x0 DUP5 DUP5 ADD MSTORE POP POP POP POP JUMP JUMPDEST PUSH1 0x0 PUSH1 0x1F NOT PUSH1 0x1F DUP4 ADD AND SWAP1 POP SWAP2 SWAP1 POP JUMP JUMPDEST PUSH1 0x0 PUSH2 0xFF0 DUP3 PUSH2 0xF8E JUMP JUMPDEST PUSH2 0xFFA DUP2 DUP6 PUSH2 0xF99 JUMP JUMPDEST SWAP4 POP PUSH2 0x100A DUP2 DUP6 PUSH1 0x20 DUP7 ADD PUSH2 0xFAA JUMP JUMPDEST PUSH2 0x1013 DUP2 PUSH2 0xFD4 JUMP JUMPDEST DUP5 ADD SWAP2 POP POP SWAP3 SWAP2 POP POP JUMP JUMPDEST PUSH2 0x1027 DUP2 PUSH2 0xF28 JUMP JUMPDEST DUP3 MSTORE POP POP JUMP JUMPDEST PUSH32 0x4E487B7100000000000000000000000000000000000000000000000000000000 PUSH1 0x0 MSTORE PUSH1 0x21 PUSH1 0x4 MSTORE PUSH1 0x24 PUSH1 0x0 REVERT JUMPDEST PUSH1 0x2 DUP2 LT PUSH2 0x106D JUMPI PUSH2 0x106C PUSH2 0x102D JUMP JUMPDEST JUMPDEST POP JUMP JUMPDEST PUSH1 0x0 DUP2 SWAP1 POP PUSH2 0x107E DUP3 PUSH2 0x105C JUMP JUMPDEST SWAP2 SWAP1 POP JUMP JUMPDEST PUSH1 0x0 PUSH2 0x108E DUP3 PUSH2 0x1070 JUMP JUMPDEST SWAP1 POP SWAP2 SWAP1 POP JUMP JUMPDEST PUSH2 0x109E DUP2 PUSH2 0x1083 JUMP JUMPDEST DUP3 MSTORE POP POP JUMP JUMPDEST PUSH1 0x0 PUSH20 0xFFFFFFFFFFFFFFFFFFFFFFFFFFFFFFFFFFFFFFFF DUP3 AND SWAP1 POP SWAP2 SWAP1 POP JUMP JUMPDEST PUSH1 0x0 PUSH2 0x10CF DUP3 PUSH2 0x10A4 JUMP JUMPDEST SWAP1 POP SWAP2 SWAP1 POP JUMP JUMPDEST PUSH2 0x10DF DUP2 PUSH2 0x10C4 JUMP JUMPDEST DUP3 MSTORE POP POP JUMP JUMPDEST PUSH1 0x0 PUSH1 0xA0 DUP4 ADD PUSH1 0x0 DUP4 ADD MLOAD DUP5 DUP3 SUB PUSH1 0x0 DUP7 ADD MSTORE PUSH2 0x1102 DUP3 DUP3 PUSH2 0xFE5 JUMP JUMPDEST SWAP2 POP POP PUSH1 0x20 DUP4 ADD MLOAD PUSH2 0x1117 PUSH1 0x20 DUP7 ADD DUP3 PUSH2 0x101E JUMP JUMPDEST POP PUSH1 0x40 DUP4 ADD MLOAD DUP5 DUP3 SUB PUSH1 0x40 DUP7 ADD MSTORE PUSH2 0x112F DUP3 DUP3 PUSH2 0xFE5 JUMP JUMPDEST SWAP2 POP POP PUSH1 0x60 DUP4 ADD MLOAD PUSH2 0x1144 PUSH1 0x60 DUP7 ADD DUP3 PUSH2 0x1095 JUMP JUMPDEST POP PUSH1 0x80 DUP4 ADD MLOAD PUSH2 0x1157 PUSH1 0x80 DUP7 ADD DUP3 PUSH2 0x10D6 JUMP JUMPDEST POP DUP1 SWAP2 POP POP SWAP3 SWAP2 POP POP JUMP JUMPDEST PUSH1 0x0 PUSH1 0x20 DUP3 ADD SWAP1 POP DUP2 DUP2 SUB PUSH1 0x0 DUP4 ADD MSTORE PUSH2 0x117C DUP2 DUP5 PUSH2 0x10E5 JUMP JUMPDEST SWAP1 POP SWAP3 SWAP2 POP POP JUMP JUMPDEST PUSH1 0x0 DUP1 REVERT JUMPDEST PUSH1 0x0 DUP1 REVERT JUMPDEST PUSH32 0x4E487B7100000000000000000000000000000000000000000000000000000000 PUSH1 0x0 MSTORE PUSH1 0x41 PUSH1 0x4 MSTORE PUSH1 0x24 PUSH1 0x0 REVERT JUMPDEST PUSH2 0x11C6 DUP3 PUSH2 0xFD4 JUMP JUMPDEST DUP2 ADD DUP2 DUP2 LT PUSH8 0xFFFFFFFFFFFFFFFF DUP3 GT OR ISZERO PUSH2 0x11E5 JUMPI PUSH2 0x11E4 PUSH2 0x118E JUMP JUMPDEST JUMPDEST DUP1 PUSH1 0x40 MSTORE POP POP POP JUMP JUMPDEST PUSH1 0x0 PUSH2 0x11F8 PUSH2 0xF14 JUMP JUMPDEST SWAP1 POP PUSH2 0x1204 DUP3 DUP3 PUSH2 0x11BD JUMP JUMPDEST SWAP2 SWAP1 POP JUMP JUMPDEST PUSH1 0x0 PUSH8 0xFFFFFFFFFFFFFFFF DUP3 GT ISZERO PUSH2 0x1224 JUMPI PUSH2 0x1223 PUSH2 0x118E JUMP JUMPDEST JUMPDEST PUSH2 0x122D DUP3 PUSH2 0xFD4 JUMP JUMPDEST SWAP1 POP PUSH1 0x20 DUP2 ADD SWAP1 POP SWAP2 SWAP1 POP JUMP JUMPDEST DUP3 DUP2 DUP4 CALLDATACOPY PUSH1 0x0 DUP4 DUP4 ADD MSTORE POP POP POP JUMP JUMPDEST PUSH1 0x0 PUSH2 0x125C PUSH2 0x1257 DUP5 PUSH2 0x1209 JUMP JUMPDEST PUSH2 0x11EE JUMP JUMPDEST SWAP1 POP DUP3 DUP2 MSTORE PUSH1 0x20 DUP2 ADD DUP5 DUP5 DUP5 ADD GT ISZERO PUSH2 0x1278 JUMPI PUSH2 0x1277 PUSH2 0x1189 JUMP JUMPDEST JUMPDEST PUSH2 0x1283 DUP5 DUP3 DUP6 PUSH2 0x123A JUMP JUMPDEST POP SWAP4 SWAP3 POP POP POP JUMP JUMPDEST PUSH1 0x0 DUP3 PUSH1 0x1F DUP4 ADD SLT PUSH2 0x12A0 JUMPI PUSH2 0x129F PUSH2 0x1184 JUMP JUMPDEST JUMPDEST DUP2 CALLDATALOAD PUSH2 0x12B0 DUP5 DUP3 PUSH1 0x20 DUP7 ADD PUSH2 0x1249 JUMP JUMPDEST SWAP2 POP POP SWAP3 SWAP2 POP POP JUMP JUMPDEST PUSH1 0x2 DUP2 LT PUSH2 0x12C6 JUMPI PUSH1 0x0 DUP1 REVERT JUMPDEST POP JUMP JUMPDEST PUSH1 0x0 DUP2 CALLDATALOAD SWAP1 POP PUSH2 0x12D8 DUP2 PUSH2 0x12B9 JUMP JUMPDEST SWAP3 SWAP2 POP POP JUMP JUMPDEST PUSH1 0x0 DUP1 PUSH1 0x0 DUP1 PUSH1 0x80 DUP6 DUP8 SUB SLT ISZERO PUSH2 0x12F8 JUMPI PUSH2 0x12F7 PUSH2 0xF1E JUMP JUMPDEST JUMPDEST PUSH1 0x0 DUP6 ADD CALLDATALOAD PUSH8 0xFFFFFFFFFFFFFFFF DUP2 GT ISZERO PUSH2 0x1316 JUMPI PUSH2 0x1315 PUSH2 0xF23 JUMP JUMPDEST JUMPDEST PUSH2 0x1322 DUP8 DUP3 DUP9 ADD PUSH2 0x128B JUMP JUMPDEST SWAP5 POP POP PUSH1 0x20 PUSH2 0x1333 DUP8 DUP3 DUP9 ADD PUSH2 0xF4C JUMP JUMPDEST SWAP4 POP POP PUSH1 0x40 DUP6 ADD CALLDATALOAD PUSH8 0xFFFFFFFFFFFFFFFF DUP2 GT ISZERO PUSH2 0x1354 JUMPI PUSH2 0x1353 PUSH2 0xF23 JUMP JUMPDEST JUMPDEST PUSH2 0x1360 DUP8 DUP3 DUP9 ADD PUSH2 0x128B JUMP JUMPDEST SWAP3 POP POP PUSH1 0x60 PUSH2 0x1371 DUP8 DUP3 DUP9 ADD PUSH2 0x12C9 JUMP JUMPDEST SWAP2 POP POP SWAP3 SWAP6 SWAP2 SWAP5 POP SWAP3 POP JUMP JUMPDEST PUSH1 0x0 PUSH1 0x20 DUP3 DUP5 SUB SLT ISZERO PUSH2 0x1393 JUMPI PUSH2 0x1392 PUSH2 0xF1E JUMP JUMPDEST JUMPDEST PUSH1 0x0 DUP3 ADD CALLDATALOAD PUSH8 0xFFFFFFFFFFFFFFFF DUP2 GT ISZERO PUSH2 0x13B1 JUMPI PUSH2 0x13B0 PUSH2 0xF23 JUMP JUMPDEST JUMPDEST PUSH2 0x13BD DUP5 DUP3 DUP6 ADD PUSH2 0x128B JUMP JUMPDEST SWAP2 POP POP SWAP3 SWAP2 POP POP JUMP JUMPDEST PUSH2 0x13CF DUP2 PUSH2 0xEE0 JUMP JUMPDEST DUP2 EQ PUSH2 0x13DA JUMPI PUSH1 0x0 DUP1 REVERT JUMPDEST POP JUMP JUMPDEST PUSH1 0x0 DUP2 CALLDATALOAD SWAP1 POP PUSH2 0x13EC DUP2 PUSH2 0x13C6 JUMP JUMPDEST SWAP3 SWAP2 POP POP JUMP JUMPDEST PUSH1 0x0 PUSH1 0x20 DUP3 DUP5 SUB SLT ISZERO PUSH2 0x1408 JUMPI PUSH2 0x1407 PUSH2 0xF1E JUMP JUMPDEST JUMPDEST PUSH1 0x0 PUSH2 0x1416 DUP5 DUP3 DUP6 ADD PUSH2 0x13DD JUMP JUMPDEST SWAP2 POP POP SWAP3 SWAP2 POP POP JUMP JUMPDEST PUSH2 0x1428 DUP2 PUSH2 0x10C4 JUMP JUMPDEST DUP2 EQ PUSH2 0x1433 JUMPI PUSH1 0x0 DUP1 REVERT JUMPDEST POP JUMP JUMPDEST PUSH1 0x0 DUP2 CALLDATALOAD SWAP1 POP PUSH2 0x1445 DUP2 PUSH2 0x141F JUMP JUMPDEST SWAP3 SWAP2 POP POP JUMP JUMPDEST PUSH1 0x0 PUSH1 0x20 DUP3 DUP5 SUB SLT ISZERO PUSH2 0x1461 JUMPI PUSH2 0x1460 PUSH2 0xF1E JUMP JUMPDEST JUMPDEST PUSH1 0x0 PUSH2 0x146F DUP5 DUP3 DUP6 ADD PUSH2 0x1436 JUMP JUMPDEST SWAP2 POP POP SWAP3 SWAP2 POP POP JUMP JUMPDEST PUSH1 0x0 DUP2 MLOAD SWAP1 POP SWAP2 SWAP1 POP JUMP JUMPDEST PUSH1 0x0 DUP3 DUP3 MSTORE PUSH1 0x20 DUP3 ADD SWAP1 POP SWAP3 SWAP2 POP POP JUMP JUMPDEST PUSH1 0x0 DUP2 SWAP1 POP PUSH1 0x20 DUP3 ADD SWAP1 POP SWAP2 SWAP1 POP JUMP JUMPDEST PUSH1 0x0 PUSH1 0xA0 DUP4 ADD PUSH1 0x0 DUP4 ADD MLOAD DUP5 DUP3 SUB PUSH1 0x0 DUP7 ADD MSTORE PUSH2 0x14C1 DUP3 DUP3 PUSH2 0xFE5 JUMP JUMPDEST SWAP2 POP POP PUSH1 0x20 DUP4 ADD MLOAD PUSH2 0x14D6 PUSH1 0x20 DUP7 ADD DUP3 PUSH2 0x101E JUMP JUMPDEST POP PUSH1 0x40 DUP4 ADD MLOAD DUP5 DUP3 SUB PUSH1 0x40 DUP7 ADD MSTORE PUSH2 0x14EE DUP3 DUP3 PUSH2 0xFE5 JUMP JUMPDEST SWAP2 POP POP PUSH1 0x60 DUP4 ADD MLOAD PUSH2 0x1503 PUSH1 0x60 DUP7 ADD DUP3 PUSH2 0x1095 JUMP JUMPDEST POP PUSH1 0x80 DUP4 ADD MLOAD PUSH2 0x1516 PUSH1 0x80 DUP7 ADD DUP3 PUSH2 0x10D6 JUMP JUMPDEST POP DUP1 SWAP2 POP POP SWAP3 SWAP2 POP POP JUMP JUMPDEST PUSH1 0x0 PUSH2 0x152D DUP4 DUP4 PUSH2 0x14A4 JUMP JUMPDEST SWAP1 POP SWAP3 SWAP2 POP POP JUMP JUMPDEST PUSH1 0x0 PUSH1 0x20 DUP3 ADD SWAP1 POP SWAP2 SWAP1 POP JUMP JUMPDEST PUSH1 0x0 PUSH2 0x154D DUP3 PUSH2 0x1478 JUMP JUMPDEST PUSH2 0x1557 DUP2 DUP6 PUSH2 0x1483 JUMP JUMPDEST SWAP4 POP DUP4 PUSH1 0x20 DUP3 MUL DUP6 ADD PUSH2 0x1569 DUP6 PUSH2 0x1494 JUMP JUMPDEST DUP1 PUSH1 0x0 JUMPDEST DUP6 DUP2 LT ISZERO PUSH2 0x15A5 JUMPI DUP5 DUP5 SUB DUP10 MSTORE DUP2 MLOAD PUSH2 0x1586 DUP6 DUP3 PUSH2 0x1521 JUMP JUMPDEST SWAP5 POP PUSH2 0x1591 DUP4 PUSH2 0x1535 JUMP JUMPDEST SWAP3 POP PUSH1 0x20 DUP11 ADD SWAP10 POP POP PUSH1 0x1 DUP2 ADD SWAP1 POP PUSH2 0x156D JUMP JUMPDEST POP DUP3 SWAP8 POP DUP8 SWAP6 POP POP POP POP POP POP SWAP3 SWAP2 POP POP JUMP JUMPDEST PUSH1 0x0 PUSH1 0x20 DUP3 ADD SWAP1 POP DUP2 DUP2 SUB PUSH1 0x0 DUP4 ADD MSTORE PUSH2 0x15D1 DUP2 DUP5 PUSH2 0x1542 JUMP JUMPDEST SWAP1 POP SWAP3 SWAP2 POP POP JUMP JUMPDEST PUSH32 0x4E487B7100000000000000000000000000000000000000000000000000000000 PUSH1 0x0 MSTORE PUSH1 0x22 PUSH1 0x4 MSTORE PUSH1 0x24 PUSH1 0x0 REVERT JUMPDEST PUSH1 0x0 PUSH1 0x2 DUP3 DIV SWAP1 POP PUSH1 0x1 DUP3 AND DUP1 PUSH2 0x1620 JUMPI PUSH1 0x7F DUP3 AND SWAP2 POP JUMPDEST PUSH1 0x20 DUP3 LT DUP2 SUB PUSH2 0x1633 JUMPI PUSH2 0x1632 PUSH2 0x15D9 JUMP JUMPDEST JUMPDEST POP SWAP2 SWAP1 POP JUMP JUMPDEST PUSH1 0x0 DUP3 DUP3 MSTORE PUSH1 0x20 DUP3 ADD SWAP1 POP SWAP3 SWAP2 POP POP JUMP JUMPDEST PUSH32 0x596F7520617265206E6F74207468652061646D696E0000000000000000000000 PUSH1 0x0 DUP3 ADD MSTORE POP JUMP JUMPDEST PUSH1 0x0 PUSH2 0x1680 PUSH1 0x15 DUP4 PUSH2 0x1639 JUMP JUMPDEST SWAP2 POP PUSH2 0x168B DUP3 PUSH2 0x164A JUMP JUMPDEST PUSH1 0x20 DUP3 ADD SWAP1 POP SWAP2 SWAP1 POP JUMP JUMPDEST PUSH1 0x0 PUSH1 0x20 DUP3 ADD SWAP1 POP DUP2 DUP2 SUB PUSH1 0x0 DUP4 ADD MSTORE PUSH2 0x16AF DUP2 PUSH2 0x1673 JUMP JUMPDEST SWAP1 POP SWAP2 SWAP1 POP JUMP JUMPDEST PUSH32 0x4E6F206665657320746F20776974686472617700000000000000000000000000 PUSH1 0x0 DUP3 ADD MSTORE POP JUMP JUMPDEST PUSH1 0x0 PUSH2 0x16EC PUSH1 0x13 DUP4 PUSH2 0x1639 JUMP JUMPDEST SWAP2 POP PUSH2 0x16F7 DUP3 PUSH2 0x16B6 JUMP JUMPDEST PUSH1 0x20 DUP3 ADD SWAP1 POP SWAP2 SWAP1 POP JUMP JUMPDEST PUSH1 0x0 PUSH1 0x20 DUP3 ADD SWAP1 POP DUP2 DUP2 SUB PUSH1 0x0 DUP4 ADD MSTORE PUSH2 0x171B DUP2 PUSH2 0x16DF JUMP JUMPDEST SWAP1 POP SWAP2 SWAP1 POP JUMP JUMPDEST PUSH1 0x0 DUP2 SWAP1 POP SWAP3 SWAP2 POP POP JUMP JUMPDEST POP JUMP JUMPDEST PUSH1 0x0 PUSH2 0x173D PUSH1 0x0 DUP4 PUSH2 0x1722 JUMP JUMPDEST SWAP2 POP PUSH2 0x1748 DUP3 PUSH2 0x172D JUMP JUMPDEST PUSH1 0x0 DUP3 ADD SWAP1 POP SWAP2 SWAP1 POP JUMP JUMPDEST PUSH1 0x0 PUSH2 0x175E DUP3 PUSH2 0x1730 JUMP JUMPDEST SWAP2 POP DUP2 SWAP1 POP SWAP2 SWAP1 POP JUMP JUMPDEST PUSH32 0x746865207363686F6F6C2062616C616E63652063616E6E6F7420626520776974 PUSH1 0x0 DUP3 ADD MSTORE PUSH32 0x68647261776E20636F73206974206661696C6564000000000000000000000000 PUSH1 0x20 DUP3 ADD MSTORE POP JUMP JUMPDEST PUSH1 0x0 PUSH2 0x17C4 PUSH1 0x34 DUP4 PUSH2 0x1639 JUMP JUMPDEST SWAP2 POP PUSH2 0x17CF DUP3 PUSH2 0x1768 JUMP JUMPDEST PUSH1 0x40 DUP3 ADD SWAP1 POP SWAP2 SWAP1 POP JUMP JUMPDEST PUSH1 0x0 PUSH1 0x20 DUP3 ADD SWAP1 POP DUP2 DUP2 SUB PUSH1 0x0 DUP4 ADD MSTORE PUSH2 0x17F3 DUP2 PUSH2 0x17B7 JUMP JUMPDEST SWAP1 POP SWAP2 SWAP1 POP JUMP JUMPDEST PUSH32 0x496E73756666696369656E7420726567697374726174696F6E20666565000000 PUSH1 0x0 DUP3 ADD MSTORE POP JUMP JUMPDEST PUSH1 0x0 PUSH2 0x1830 PUSH1 0x1D DUP4 PUSH2 0x1639 JUMP JUMPDEST SWAP2 POP PUSH2 0x183B DUP3 PUSH2 0x17FA JUMP JUMPDEST PUSH1 0x20 DUP3 ADD SWAP1 POP SWAP2 SWAP1 POP JUMP JUMPDEST PUSH1 0x0 PUSH1 0x20 DUP3 ADD SWAP1 POP DUP2 DUP2 SUB PUSH1 0x0 DUP4 ADD MSTORE PUSH2 0x185F DUP2 PUSH2 0x1823 JUMP JUMPDEST SWAP1 POP SWAP2 SWAP1 POP JUMP JUMPDEST PUSH32 0x4E487B7100000000000000000000000000000000000000000000000000000000 PUSH1 0x0 MSTORE PUSH1 0x11 PUSH1 0x4 MSTORE PUSH1 0x24 PUSH1 0x0 REVERT JUMPDEST PUSH1 0x0 PUSH2 0x18A0 DUP3 PUSH2 0xF28 JUMP JUMPDEST SWAP2 POP PUSH1 0xFF DUP3 SUB PUSH2 0x18B3 JUMPI PUSH2 0x18B2 PUSH2 0x1866 JUMP JUMPDEST JUMPDEST PUSH1 0x1 DUP3 ADD SWAP1 POP SWAP2 SWAP1 POP JUMP JUMPDEST PUSH1 0x0 DUP2 SWAP1 POP DUP2 PUSH1 0x0 MSTORE PUSH1 0x20 PUSH1 0x0 KECCAK256 SWAP1 POP SWAP2 SWAP1 POP JUMP JUMPDEST PUSH1 0x0 PUSH1 0x20 PUSH1 0x1F DUP4 ADD DIV SWAP1 POP SWAP2 SWAP1 POP JUMP JUMPDEST PUSH1 0x0 DUP3 DUP3 SHL SWAP1 POP SWAP3 SWAP2 POP POP JUMP JUMPDEST PUSH1 0x0 PUSH1 0x8 DUP4 MUL PUSH2 0x1920 PUSH32 0xFFFFFFFFFFFFFFFFFFFFFFFFFFFFFFFFFFFFFFFFFFFFFFFFFFFFFFFFFFFFFFFF DUP3 PUSH2 0x18E3 JUMP JUMPDEST PUSH2 0x192A DUP7 DUP4 PUSH2 0x18E3 JUMP JUMPDEST SWAP6 POP DUP1 NOT DUP5 AND SWAP4 POP DUP1 DUP7 AND DUP5 OR SWAP3 POP POP POP SWAP4 SWAP3 POP POP POP JUMP JUMPDEST PUSH1 0x0 DUP2 SWAP1 POP SWAP2 SWAP1 POP JUMP JUMPDEST PUSH1 0x0 PUSH2 0x1967 PUSH2 0x1962 PUSH2 0x195D DUP5 PUSH2 0xEE0 JUMP JUMPDEST PUSH2 0x1942 JUMP JUMPDEST PUSH2 0xEE0 JUMP JUMPDEST SWAP1 POP SWAP2 SWAP1 POP JUMP JUMPDEST PUSH1 0x0 DUP2 SWAP1 POP SWAP2 SWAP1 POP JUMP JUMPDEST PUSH2 0x1981 DUP4 PUSH2 0x194C JUMP JUMPDEST PUSH2 0x1995 PUSH2 0x198D DUP3 PUSH2 0x196E JUMP JUMPDEST DUP5 DUP5 SLOAD PUSH2 0x18F0 JUMP JUMPDEST DUP3 SSTORE POP POP POP POP JUMP JUMPDEST PUSH1 0x0 SWAP1 JUMP JUMPDEST PUSH2 0x19AA PUSH2 0x199D JUMP JUMPDEST PUSH2 0x19B5 DUP2 DUP5 DUP5 PUSH2 0x1978 JUMP JUMPDEST POP POP POP JUMP JUMPDEST JUMPDEST DUP2 DUP2 LT ISZERO PUSH2 0x19D9 JUMPI PUSH2 0x19CE PUSH1 0x0 DUP3 PUSH2 0x19A2 JUMP JUMPDEST PUSH1 0x1 DUP2 ADD SWAP1 POP PUSH2 0x19BB JUMP JUMPDEST POP POP JUMP JUMPDEST PUSH1 0x1F DUP3 GT ISZERO PUSH2 0x1A1E JUMPI PUSH2 0x19EF DUP2 PUSH2 0x18BE JUMP JUMPDEST PUSH2 0x19F8 DUP5 PUSH2 0x18D3 JUMP JUMPDEST DUP2 ADD PUSH1 0x20 DUP6 LT ISZERO PUSH2 0x1A07 JUMPI DUP2 SWAP1 POP JUMPDEST PUSH2 0x1A1B PUSH2 0x1A13 DUP6 PUSH2 0x18D3 JUMP JUMPDEST DUP4 ADD DUP3 PUSH2 0x19BA JUMP JUMPDEST POP POP JUMPDEST POP POP POP JUMP JUMPDEST PUSH1 0x0 DUP3 DUP3 SHR SWAP1 POP SWAP3 SWAP2 POP POP JUMP JUMPDEST PUSH1 0x0 PUSH2 0x1A41 PUSH1 0x0 NOT DUP5 PUSH1 0x8 MUL PUSH2 0x1A23 JUMP JUMPDEST NOT DUP1 DUP4 AND SWAP2 POP POP SWAP3 SWAP2 POP POP JUMP JUMPDEST PUSH1 0x0 PUSH2 0x1A5A DUP4 DUP4 PUSH2 0x1A30 JUMP JUMPDEST SWAP2 POP DUP3 PUSH1 0x2 MUL DUP3 OR SWAP1 POP SWAP3 SWAP2 POP POP JUMP JUMPDEST PUSH2 0x1A73 DUP3 PUSH2 0xF8E JUMP JUMPDEST PUSH8 0xFFFFFFFFFFFFFFFF DUP2 GT ISZERO PUSH2 0x1A8C JUMPI PUSH2 0x1A8B PUSH2 0x118E JUMP JUMPDEST JUMPDEST PUSH2 0x1A96 DUP3 SLOAD PUSH2 0x1608 JUMP JUMPDEST PUSH2 0x1AA1 DUP3 DUP3 DUP6 PUSH2 0x19DD JUMP JUMPDEST PUSH1 0x0 PUSH1 0x20 SWAP1 POP PUSH1 0x1F DUP4 GT PUSH1 0x1 DUP2 EQ PUSH2 0x1AD4 JUMPI PUSH1 0x0 DUP5 ISZERO PUSH2 0x1AC2 JUMPI DUP3 DUP8 ADD MLOAD SWAP1 POP JUMPDEST PUSH2 0x1ACC DUP6 DUP3 PUSH2 0x1A4E JUMP JUMPDEST DUP7 SSTORE POP PUSH2 0x1B34 JUMP JUMPDEST PUSH1 0x1F NOT DUP5 AND PUSH2 0x1AE2 DUP7 PUSH2 0x18BE JUMP JUMPDEST PUSH1 0x0 JUMPDEST DUP3 DUP2 LT ISZERO PUSH2 0x1B0A JUMPI DUP5 DUP10 ADD MLOAD DUP3 SSTORE PUSH1 0x1 DUP3 ADD SWAP2 POP PUSH1 0x20 DUP6 ADD SWAP5 POP PUSH1 0x20 DUP2 ADD SWAP1 POP PUSH2 0x1AE5 JUMP JUMPDEST DUP7 DUP4 LT ISZERO PUSH2 0x1B27 JUMPI DUP5 DUP10 ADD MLOAD PUSH2 0x1B23 PUSH1 0x1F DUP10 AND DUP3 PUSH2 0x1A30 JUMP JUMPDEST DUP4 SSTORE POP JUMPDEST PUSH1 0x1 PUSH1 0x2 DUP9 MUL ADD DUP9 SSTORE POP POP POP JUMPDEST POP POP POP POP POP POP JUMP JUMPDEST PUSH1 0x0 PUSH2 0x1B47 DUP3 PUSH2 0xEE0 JUMP JUMPDEST SWAP2 POP PUSH2 0x1B52 DUP4 PUSH2 0xEE0 JUMP JUMPDEST SWAP3 POP DUP3 DUP3 ADD SWAP1 POP DUP1 DUP3 GT ISZERO PUSH2 0x1B6A JUMPI PUSH2 0x1B69 PUSH2 0x1866 JUMP JUMPDEST JUMPDEST SWAP3 SWAP2 POP POP JUMP JUMPDEST PUSH1 0x0 DUP2 SWAP1 POP DUP2 PUSH1 0x0 MSTORE PUSH1 0x20 PUSH1 0x0 KECCAK256 SWAP1 POP SWAP2 SWAP1 POP JUMP JUMPDEST PUSH1 0x0 DUP2 SLOAD PUSH2 0x1B92 DUP2 PUSH2 0x1608 JUMP JUMPDEST PUSH2 0x1B9C DUP2 DUP7 PUSH2 0x1722 JUMP JUMPDEST SWAP5 POP PUSH1 0x1 DUP3 AND PUSH1 0x0 DUP2 EQ PUSH2 0x1BB7 JUMPI PUSH1 0x1 DUP2 EQ PUSH2 0x1BCC JUMPI PUSH2 0x1BFF JUMP JUMPDEST PUSH1 0xFF NOT DUP4 AND DUP7 MSTORE DUP2 ISZERO ISZERO DUP3 MUL DUP7 ADD SWAP4 POP PUSH2 0x1BFF JUMP JUMPDEST PUSH2 0x1BD5 DUP6 PUSH2 0x1B70 JUMP JUMPDEST PUSH1 0x0 JUMPDEST DUP4 DUP2 LT ISZERO PUSH2 0x1BF7 JUMPI DUP2 SLOAD DUP2 DUP10 ADD MSTORE PUSH1 0x1 DUP3 ADD SWAP2 POP PUSH1 0x20 DUP2 ADD SWAP1 POP PUSH2 0x1BD8 JUMP JUMPDEST DUP4 DUP9 ADD SWAP6 POP POP POP JUMPDEST POP POP POP SWAP3 SWAP2 POP POP JUMP JUMPDEST PUSH1 0x0 PUSH2 0x1C14 DUP3 DUP5 PUSH2 0x1B85 JUMP JUMPDEST SWAP2 POP DUP2 SWAP1 POP SWAP3 SWAP2 POP POP JUMP JUMPDEST PUSH32 0x53747564656E74206E6F7420666F756E64000000000000000000000000000000 PUSH1 0x0 DUP3 ADD MSTORE POP JUMP JUMPDEST PUSH1 0x0 PUSH2 0x1C55 PUSH1 0x11 DUP4 PUSH2 0x1639 JUMP JUMPDEST SWAP2 POP PUSH2 0x1C60 DUP3 PUSH2 0x1C1F JUMP JUMPDEST PUSH1 0x20 DUP3 ADD SWAP1 POP SWAP2 SWAP1 POP JUMP JUMPDEST PUSH1 0x0 PUSH1 0x20 DUP3 ADD SWAP1 POP DUP2 DUP2 SUB PUSH1 0x0 DUP4 ADD MSTORE PUSH2 0x1C84 DUP2 PUSH2 0x1C48 JUMP JUMPDEST SWAP1 POP SWAP2 SWAP1 POP JUMP JUMPDEST PUSH1 0x0 PUSH2 0x1C96 DUP3 PUSH2 0xF28 JUMP JUMPDEST SWAP2 POP PUSH2 0x1CA1 DUP4 PUSH2 0xF28 JUMP JUMPDEST SWAP3 POP DUP3 DUP3 SUB SWAP1 POP PUSH1 0xFF DUP2 GT ISZERO PUSH2 0x1CBA JUMPI PUSH2 0x1CB9 PUSH2 0x1866 JUMP JUMPDEST JUMPDEST SWAP3 SWAP2 POP POP JUMP JUMPDEST PUSH32 0x4E487B7100000000000000000000000000000000000000000000000000000000 PUSH1 0x0 MSTORE PUSH1 0x32 PUSH1 0x4 MSTORE PUSH1 0x24 PUSH1 0x0 REVERT INVALID LOG2 PUSH5 0x6970667358 0x22 SLT KECCAK256 SWAP6 0xAB 0xC0 0x22 0xC4 0xD3 SWAP12 PUSH32 0xCF702B5946E5CDECED0FAB367BBC7CEF5E70B7EE03E8FA8B64736F6C63430008 SHR STOP CALLER "
        },
        "methodIdentifiers": {
          "getStudent(uint8)": "1fd30892",
          "getStudentFromName(string)": "ac7245b5",
          "getStudents()": "f1d064b3",
          "payments(address)": "e2982c21",
          "registerStudent(string,uint8,string,uint8)": "7fe8c909",
          "registrationFee()": "14c44e09",
          "updateRegistrationFee(uint256)": "af582c6b",
          "withdrawFees()": "476343ee"
        }
      }
    }
  }
}